:020000040000FA
:10000000A80B0020D5000000EF000000E120000058
:1000100000000000000000000000000000000000E0
:10002000000000000000000000000000F3000000DD
:100030000000000000000000F5000000E14F00009B
:10004000BD390000C5390000CD390000D5390000A8
:1000500015180000F1540000355500003D55000012
:10006000292E0000312E0000894C0000914C000028
:100070003D26000045260000D9540000E154000050
:10008000E9540000212E0000F95400000155000041
:1000900009550000AD390000D95D00003D41000068
:1000A000EB090000B5390000215D0000295D00006A
:1000B000392E0000DB2D00005119000071150000E1
:1000C0000348854600F05CFC00480047A76C000030
:1000D000A80B002009480A4A002100A1814200D94A
:1000E0000244084802600848804708480047FEE785
:1000F000FEE7FEE7FEE7FEE7FEE700000000002067
:100100000000000008ED00E0D1540000C100000034
:1001100030B50B46014600202022012409E00D469F
:10012000D5409D4205D31D469540491B2546954027
:1001300040191546521E002DF1DC30BD70B500246B
:100140002546002801DA01244042002901DA012570
:100150004942FFF7DDFFAC4200D04042002C00D006
:10016000494270BD03460B439B0703D009E008C911
:10017000121F08C0042AFAD203E00B780370401C57
:10018000491C521EF9D27047F8B502464A40D40FB6
:1001900042004B0052085B089A4202D202460846CF
:1001A00011464A0023D0C30D4A00DDB2120EAD1A2B
:1001B000202D35DA49020126490AF6058A19002C54
:1001C00000D0524220214F1B1146B9402A4110183D
:1001D000C20D9A4221D0002C17D0012D08DCDA057F
:1001E000801AD20F8019D207DBB200F0D2F9F8BD25
:1001F000DA05801A012340001B06C01880185A42F5
:100200008018CA0F1043490007E04908C20711438C
:10021000DA05801A80194008801800F0B2F9F8BD9C
:1002200061000122511A001BF7E70122D207514059
:10023000AAE70122D2075040A6E770B502464A401D
:10024000D50F40004A00ED0740085208002814D09E
:10025000002A12D0C40DD30D41020120C005520264
:10026000490A520AE41A091812187D34914201D33E
:10027000641C00E04900002C01DA002070BD00235E
:10028000914201D3891A0343400849000028F7D15D
:1002900000290AD0914202D10121C90705E091420B
:1002A00001D2012101E00121C943E005C018401934
:1002B00000F067F970BD0000F0B51FB488B00B996D
:1002C0000998002448400999C00F4900490809913C
:1002D000C0070B990090490049080B9109990898AB
:1002E000A64608431CD00B990A98084318D00998D1
:1002F00001244000420D4800410D099824050003E7
:10030000000B204309900B980003000B20430B9037
:1003100050181C494018002201901446104605E070
:10032000002001460DB0F0BD032801DA034600E0CD
:1003300003239C46C11A0AAE0AE05F0008ADED5BDC
:100340004F00F75B7D430027AA187C41491C5B1EC8
:100350006145F2DD410004AB5A522104120C0A43FC
:10036000240C401C0828DFDB01980290009970469D
:1003700001910090059B049A0799069800F04FF9A7
:10038000D0E700000DFCFFFFC217C10F504010B5B1
:100390004018CA079623002100F0FBF810BD10B5E5
:1003A00000229623114600F0F4F810BD0EB5C217D6
:1003B000C10F5040CA0740180021054B029301921B
:1003C00000910A460B4600F02AF903B000BD000078
:1003D000330400000EB505490291002100910A4640
:1003E0000B46019100F01BF903B000BD330400007F
:1003F000C20F410040020123400ADB05D207090E6B
:10040000C0187F2901DA00207047962903DC962363
:10041000591AC84001E096398840002AF4D0404279
:100420007047410040020122400AD205090E80189F
:100430007F2901DA00207047962903DC9622511AA1
:10044000C840704796398840704700004A00090349
:100450000123090B1B051943094B10B5520D9A4294
:1004600001DA002010BD064B34339A4203DC9A1A9D
:1004700000F076F810BD03495118884010BD000007
:10048000FF030000CDFBFFFFC20FD2074000400872
:100490000BD0C10D0723DB01C91840020905400A32
:1004A0001143C208400711437047002001467047BE
:1004B00010B5002904DB0124E40740428C412146A9
:1004C000002B04DB1C460123DB075242A3418B4275
:1004D00000D1824210BD00000122D207002800DBBB
:1004E000101A002900DB511A814270470122D207FD
:1004F000002800DB101A002900DB511A88427047DF
:10050000F0B51FB40646002082B005464024019194
:1005100000901BE0019922460F46304600F020F87B
:10052000049A059B801A994110D310461946224619
:1005300000F038FA361A8F41019722460120002137
:10054000009F00F02FFA38184D4100902046641E9D
:100550000028DFDC019B00982946324607B0F0BD39
:1005600010B5202A04DB0846203AD040002110BDF7
:100570000B46D340D0402024A21A9140084319468C
:1005800010BD002904DA401C490001D14008400098
:10059000704770B40024050C05D11024000402D16A
:1005A000002921D01124050E01D100020834050FC5
:1005B00001D10001241D850F01D18000A41C002859
:1005C00001DB4000641C002908D020252E1B0D46AD
:1005D000F540A14000D001212943084301061B1B1F
:1005E000000ADB1D02D5002070BC7047DB0518181F
:1005F00080180029F8DA401C4900F5D170BC400889
:100600004000704710B5002B08DA0024401C6141FF
:1006100092185B411A4301D14008400010BDF0B56B
:100620001FB482B005460C0003D0084605F0C0FC9C
:1006300002E005F0BDFC203002460090214628462D
:1006400000F0B0F9049B059A04460F461843114385
:10065000084314D0184610431BD0009840210A1AB2
:1006600018460599FFF77CFF05460E46009A059946
:10067000049800F097F9084305D0012004E02046D3
:10068000394607B0F0BD0020C11705430E432C4387
:10069000374300990E986305401A7905E40A002251
:1006A0000C43FD0A0A3002D500200146E9E70105A6
:1006B000101969410C9C0D9D00196941FFF7A2FFBB
:1006C000DFE70000F0B507460846584087B0C00F86
:1006D000049048000E46590040084908BC1A884159
:1006E00005D2384631461E4617460B46024658008C
:1006F000400810434CD0300D039040055900400D88
:10070000490D0590401A0290402872DA1803012121
:10071000000B09050843019004980092002805D0B9
:100720000199524200208841009201900298402194
:100730000A1A0199009800F035F905460C466B46F7
:1007400007CB00F03FF9C0197141039A0E0D002349
:10075000D71756401A467A40164344D0049A002AC6
:100760002DD0029A012A039A15DC1205C01A914174
:1007700001263605001C7141D20F059ED207009359
:10078000019202962A462346FFF749FF07B0F0BDC3
:1007900038463146FAE71605224A0F46B218C01A03
:1007A000B74101210905001C4F4100187F41114646
:1007B00018187941E20F10436D19644113E0E20704
:1007C0006D0815436408C2071443039A01261205F5
:1007D000C01A91413605001C7141CE0740083043D4
:1007E0004908C01851412A462346FFF70BFFCDE7C1
:1007F000FFE7049801224000C117121A00238B4121
:1008000004983146C417381AA141EEE730B40124E8
:10081000E407634030BC55E730B40124E40761408D
:1008200030BC4FE70000E0FFF0B50C465C4085B0FF
:10083000E40FE40703944C00002664085900944632
:10084000490802460296224321D062460A431ED03E
:100850006200570D4A000E032303550D0124024682
:100860002C492405781B1B0B360B401823432643C9
:10087000614600901C46501AB44103D30098401CB6
:10088000009002E0921800985B41002803DA0020F3
:10089000014605B0F0BD0020012109050746864646
:1008A00011E064461D46141BB54106D36546521B34
:1008B000B341744607430C43A646CD074008490898
:1008C000284392185B4105460D43EAD11046184370
:1008D00013D06046194650407140084306D0604628
:1008E000101AB34106D20122002306E000220123A0
:1008F000DB0702E00122D243531000987446010541
:10090000381C6141029C039D00196941FFF77AFE82
:10091000BFE70000FD0300004A0009030123090BA3
:100920001B0519430A4B10B5520D9A4202DA0020FA
:10093000014610BD064B34339A4203DC9A1AFFF786
:100940000FFE10BD034BD21800F02CF810BD0000B4
:10095000FF030000CDFBFFFF10B5002904DB0124DD
:10096000E40740428C412146002B04DB1C46012356
:10097000DB075242A341994200D1904210BD0000D2
:10098000064C0125064E05E0E36807CC2B430C3CE2
:1009900098471034B442F7D3FFF796FBC48D00009C
:1009A000E48D000010B5202A04DB0146203A914076
:1009B000002010BD914020239C1A0346E3401943B8
:1009C000904010BD10B5202A06DBCB170846203A10
:1009D0001041C1170B4306E00B461341D0402024C1
:1009E000A21A91400843194610BD10B5C046C04632
:1009F00010BD08B501211F2004F0BEFC002000F04E
:100A0000C9FF042004F0C4FC002168460170417055
:100A1000817004F0E9FA08BD1CB50621684605F0AE
:100A2000D3FF01211C2004F0A7FC0021684641707F
:100A300001706A460721002001F0E4FA0122072133
:100A4000002001F027FB6A460521002001F0DAFAB8
:100A500001220521002001F01DFB1CBD1CB5062153
:100A6000684605F0B1FF01211C2004F085FC00213F
:100A7000684601706A460221002001F0C3FA012293
:100A80000221002001F006FB0121684601706A4640
:100A90000321002001F0B6FA01220321002001F019
:100AA000F9FA1CBD10B5112004F098FC01210220B8
:100AB00004F0D0FA022004F0C5FC002004F068FC29
:100AC000002004F0BFFC0021022004F0C3FA7D20C6
:100AD000C00005F089FF10BD08B50121062004F013
:100AE0004BFC10216846017000214170C17081707B
:100AF0006946024804F037FA08BD000000080040CB
:100B0000B0B588B004460F461546142103A805F079
:100B10005BFF0A21684605F057FF0121082004F019
:100B20002BFC0221684601730021C173817341735C
:100B300001740121417400218174C17403A9002052
:100B400000F0C2FC01222146002000F097FB2A465B
:100B50000121002000F0AAFB0721684681710021D5
:100B6000C17101210172002141726946002000F02B
:100B7000E7FB3146002000F0B7FB002000F028FB27
:100B800008B0B0BD1FB5062102A805F01DFF062163
:100B9000684605F019FF01211C2004F0EDFB00213F
:100BA000684601706A460521C02001F02BFA002139
:100BB0006846017202AA0121002001F023FA0322F3
:100BC0000121002001F066FA1FBD70B586B0044611
:100BD000142101A805F0F8FE0121082004F0CCFB47
:100BE00000216846017141720521C17101218172A4
:100BF000002101728171417101A9022000F018FCED
:100C000003208003001B85B22946022000F008FB68
:100C100003208003001B86B23146022000F010FB47
:100C20000021022000F0E0FA022000F0F3FB012294
:100C30000321102000F062FE06B070BD00B587B041
:100C4000102103A805F0C0FE0C21684605F0BCFE8B
:100C50000121084604F090FB402168460173002101
:100C6000C18141734B21C9010691012149020182D1
:100C700004F038FB059003A90A4804F001FD0021A7
:100C8000084804F0D1FC0121064804F0CDFC002105
:100C9000044804F0DEFC01220321072000F02EFEB0
:100CA00007B000BD0001004010B50446082C73D009
:100CB00004DC002C07D0032C19D16EE00B2C56D08D
:100CC0000C2CF9D114E004F047FD05F067FE9023E9
:100CD00042A21B211A2001F0FDF83C220121084606
:100CE00002F000F905220121032002F0FBF873E075
:100CF0003C480078002806D0012810D002281AD0DD
:100D000003282ED123E02A236B2228215F2000F024
:100D10005BFE34480078401C3249087025E02A23E5
:100D2000612228215F2000F0C7FE2E480078401C79
:100D30002C49087019E02A2366222821642000F03B
:100D4000BBFE28480078401C264908700DE02A2385
:100D50006B222821692000F0AFFE00202149087095
:100D600003E000201F49087000BF00BF34E00120ED
:100D70001D490870102002F031FE002802D0012821
:100D800008D103E0194800F03BFD03E0184800F0EB
:100D900037FD00BF00BF1FE010E000221146012018
:100DA00002F0A0F805220021032002F09BF80120A8
:100DB0000D4908700F4800F023FD0DE00022114698
:100DC000012002F08FF805220021032002F08AF8AA
:100DD000064800F015FD00BF00BF10BDB5F7C6BD49
:100DE000D6D00000E90000201C000020951800006B
:100DF000853800000D6D000010B53048407800289F
:100E000057D02E48407900281DD02C480078002863
:100E100019D001202949C87000220121104600F094
:100E200073FA2648007925490978884245DB002075
:100E30002249087100221146104600F065FA002090
:100E40001E49487139E01D484079002826D11B48C9
:100E50008078002822D0194800791849897888427A
:100E60002BDB16484078401E1449487008464078ED
:100E7000002809D0002008710120487100220121BA
:100E8000104600F041FA18E000200C49C8700871C3
:100E900000221146104600F037FA0EE000221146FB
:100EA000104600F031FA002004494870C8700871FB
:100EB00003E000200149C870087110BD0400002043
:100EC0000448C078002804D002480079401C014939
:100ED000087170470400002070B504460D461646A0
:100EE0000A2002F07BFD002801D1012000E0002053
:100EF000C007C00F002800D070BD01200449487110
:100F000000200871084644700570867000BFF3E742
:100F1000040000201CB50446230005F060F80C070F
:100F2000466482AEAEAEAE3DAEAE9FAE05F036FDCF
:100F300000F0B4F8524803F005FF5249504801F060
:100F400034F84F48006881004D48083042589023DB
:100F50001B210A2000F0BEFF0C2002F03FFD484993
:100F60000968494A515C88420AD1012047490C234B
:100F70001022009101901B215A2000F023FF05E070
:100F800027236A221B215A2000F01EFD0322012183
:100F9000084601F0A7FF70E000221146012001F091
:100FA000A1FF3B4800F02CFC67E0354800F036FC20
:100FB0000C2002F013FD32490968334A515C884223
:100FC0000AD1012031490C231022009101901B21EC
:100FD0005A2000F0F7FE05E027236A221B215A2041
:100FE00000F0F2FC49E0264801F030FB0C2002F052
:100FF000F5FC23490968244A515C88420AD1012042
:1010000022490C231022009101901B215A2000F04C
:10101000D9FE05E027236A221B215A2000F0D4FCC8
:101020002BE017480068002806D0012805D00228C8
:1010300004D003280FD10AE000BF00BF10480068A9
:10104000114A115C00220C2002F0B8FD04E01048A7
:1010500000F0D6FB00E000BF00BF0EE008480068CB
:10106000094A115C01220C2002F0A8FD0120094967
:101070000870094800F0C4FB00BF00BF1CBD0000A1
:10108000B40300208C000020367A0000687700004E
:10109000153400001C0000208538000000200249A3
:1010A0000860032008717047B403002010B504469F
:1010B000002C06D0082C6DD00B2C56D00C2C77D1E0
:1010C00014E005F06BFC90233AA21B211A2000F0DB
:1010D00001FF04F05DFB14220121084601F002FF2C
:1010E00005220121032001F0FDFE61E03348007874
:1010F000002806D0012810D002281AD003282ED1AB
:1011000023E02A236B2228215F2000F05DFC2B487E
:101110000078401C2949087025E02A2361222821F3
:101120005F2000F0C9FC25480078401C2349087066
:1011300019E02A2366222821642000F0BDFC1F4804
:101140000078401C1D4908700DE02A236B222821DD
:10115000692000F0B1FC00201849087003E000206D
:101160001649087000BF00BF22E001201449087032
:10117000102002F033FC002802D0012808D103E03F
:10118000104800F03DFB03E00F4800F039FB00BFC2
:1011900000BF0DE000221146012001F0A3FE052250
:1011A0000021032001F09EFE084800F029FB00BF4B
:1011B00000BF10BDD7D4BCECD6D00000E8000020A2
:1011C0001C00002095180000853800000D6D0000FF
:1011D00010B5014600200B02024C1A19002353617E
:1011E00010BD0000000C004030B502460020140283
:1011F000034D631901248C40E4435C6130BD000061
:10120000000C004070B5024600201502034EAB19D9
:101210001C692546CD40E807C00F70BD000C00409A
:1012200030B5024600201402044D63191C68240CDA
:1012300024048DB22C431C6030BD0000000C004023
:1012400030B5024600201402044D63195C68240C7A
:1012500024048DB22C435C6030BD0000000C0040C3
:1012600010B5014600200B02034C1A19D3685B0825
:101270005B005B1CD36010BD000C0040F0B5034662
:101280000C4600201D02084EA9190D682D0C2D04D6
:10129000A6B235430D60CD688026B543D6018027C0
:1012A0003E403543CD60F0BD000C004070B50446B3
:1012B0000B46002025020B4EA919002B06D1CD6B41
:1012C0002D0C2D0496B23543CD6309E0012B06D1D8
:1012D0000D6C2D0C2D0496B235430D6400E00120F9
:1012E00070BD0000000C004030B502460020140222
:1012F000044D63195C68240C24048DB22C435C609B
:1013000030BD0000000C0040F0B503460C46002044
:101310001D020A4EA9190D6BB614B5432603012709
:101320003F033E4035430D630D6B7E10B543D6023F
:101330007F103E4035430D63F0BD0000000C0040BF
:1013400070B503460A4600201C022A4D61194C6AFA
:101350001025AC434C62CC69E408E40055786D0775
:101360006D0F2C43CC61CC690825AC439578ED001A
:10137000082635402C43CC614C6A4025AC43D578D7
:10138000AD01402635402C434C62CC6803256D05E9
:10139000AC4315796D050326760535402C43CC60AA
:1013A0004C6A2025AC434C62CC697025AC439579DE
:1013B0002D01702635402C43CC61CC698025AC438F
:1013C000D579ED01802635402C43CC614C6A8025CF
:1013D000AC43157AED0135402C434C624C6A032531
:1013E0002D03AC43557A2D030326360335402C4399
:1013F0004C6270BD000C004010B5014600200B028D
:10140000034C1A19D3685B085B005B1CD36010BDEA
:10141000000C004010B5014600200B02034C1A19C5
:10142000D3682415A3431B19D36010BD000C0040E2
:1014300070B503460A4600201C02224D6119CC6893
:10144000AD00AC4315782D030326360335402C43FD
:10145000CC60CC6801256D02AC4355786D02012645
:10146000760235402C43CC60CC687510AC4395783F
:101470002D02761035402C43CC60CC687025AC43EF
:10148000D5782D01702635402C43CC60CC680825DA
:10149000AC431579ED00082635402C43CC60CC6870
:1014A0000425AC435579AD00042635402C43CC606F
:1014B000CC680225AC4395796D00022635402C435B
:1014C000CC6070BD000C004070B503460A46002099
:1014D0001C02264D6119CC68AD00AC4315782D0374
:1014E0000326360335402C43CC60CC687025AC43D2
:1014F00095782D01702635402C43CC60CC680425AE
:10150000AC43D578AD00042635402C43CC60CC6884
:101510000225AC4315796D00022635402C43CC6082
:10152000CC680825AC435579ED00082635402C439E
:10153000CC60CC68F502AC439579AD03F60235403A
:101540002C43CC60CC68F500AC43D5796D04F60033
:1015500035402C43CC60CC68B502AC435578ED06E1
:10156000B60235402C43CC6070BD0000000C00403A
:1015700010B5C046C04610BD70B502460B46FF25EB
:10158000FF2408E01178521C61400748405C684025
:1015900004460648455C18465E1EB3B20028F1D1E9
:1015A0002802204370BD0000806E0000806F0000A4
:1015B0001CB5012002F012FA0446032002F00EFAD4
:1015C000844203D801203449087021E0012002F050
:1015D00005FA0446022002F001FA844203D30220F5
:1015E0002D49087014E0012002F0F8F92B49897E9A
:1015F000002902D0FF21633101E0E1218900884206
:1016000003D203202449087002E004202249087014
:10161000214800782249097888423BD01E4800784A
:101620001F49087008460078012806D002280FD00C
:10163000032818D004282CD120E0012019492023A8
:101640001A460091019014210A2000F0BBFB20E013
:101650000120154920231A460091019014210A20E7
:1016600000F0B0FB15E00120104920231A4600913C
:10167000019014210A2000F0A5FB0AE001200C498A
:1016800020231A460091019014210A2000F09AFBB1
:1016900000BF00BF1CBD00001F000020F4000020A0
:1016A00020000020E87400006874000068730000E7
:1016B000E873000010B50446002C06D0082C6DD04D
:1016C0000B2C56D00C2C77D114E004F053F805F015
:1016D00065F9902339A21B211A2000F0FBFB0A2296
:1016E0000121084601F0FEFB05220121032001F043
:1016F000F9FB61E033480078002806D0012810D0BB
:1017000002281AD003282ED123E02A236B22282175
:101710005F2000F059F92B480078401C29490870D7
:1017200025E02A23612228215F2000F0C5F9254801
:101730000078401C2349087019E02A2366222821DA
:10174000642000F0B9F91F480078401C1D4908705A
:101750000DE02A236B222821692000F0ADF900203A
:101760001849087003E000201649087000BF00BF48
:1017700022E0012014490870102002F02FF90028FF
:1017800002D0012808D103E0104800F039F803E046
:101790000F4800F035F800BF00BF0DE00522002122
:1017A000032001F09FFB00221146012001F09AFB6B
:1017B000084800F025F800BF00BF10BDD7D4BCEC2E
:1017C000D6D00000EA0000201C0000209518000080
:1017D000853800000D6D000000B512231A220A2181
:1017E000084600F0F1F83A231A2232210A2000F0CC
:1017F000EBF82B234A221B210A2000F0E5F800BD5C
:1018000010B504460248046001680020884710BDF6
:10181000F000002010B5C046C04610BD1CB50446FF
:101820002068002830DD2068401E2060FFF7D4FFCC
:101830002068810020460830425890231B210A204E
:1018400000F048FB206800280AD101200F49062338
:1018500010220091019032210A2000F0B3FA13E027
:1018600001200B4906231022009101900A2108460D
:1018700000F0A8FA012005490623102200910190EA
:1018800032210A2000F09EFA1CBD000040780000C2
:101890004C7800001CB50446002C02D0082C23D143
:1018A00011E005F07BF80120104920231A46009131
:1018B00001901421322000F085FA012211461046D1
:1018C00001F010FB10E000221146012001F00AFB9C
:1018D00007480078002803D00648FFF791FF02E090
:1018E0000548FFF78DFF00BF00BF1CBD68760000F4
:1018F0001C00002015340000512F000070B5044674
:101900000E46154600BFE106C90E012088400E496B
:10191000086000BF3146204601F078FF012D08D154
:1019200000BFE106C90E012088400849086000BFD9
:1019300009E000BFE106C90E01208840034980315B
:10194000086000BF00BF70BD80E200E000E100E081
:1019500010B5C046C046C046C04610BD70B5024670
:101960001378547818022043054600210CE0222009
:101970004843074E305AA84204D1222048438019D8
:10198000801C70BD481C81B24629F0D30020F8E7C6
:101990004483000010B501460020084A084BDA6273
:1019A000084ADA621A46126A0C239A438B000C2406
:1019B00023401A43024B1A6210BD00005A5A00001D
:1019C00000000240A5A50000FFB506460F463446BC
:1019D0000DE03D4605E0E9B2E0B200F00DF8681C0C
:1019E00085B20398401C8542F5DB601C84B20298E6
:1019F000401C8442EDDBFFBD70B50346402901DD8C
:101A0000012000E000207F2B01DD012200E0002208
:101A10001043002800D070BD0846CC17640F24186E
:101A2000E410E4010B4D6419E45C0A46CD176D0F18
:101A3000AD18ED10ED004E1B0125B540AC43CD17A0
:101A40006D0F2D18ED10ED01024EAD19EC5400BFD5
:101A5000E1E700009405002070B50346402901DD50
:101A6000012000E000207F2B01DD012200E00022A8
:101A70001043002800D070BD0846CC17640F24180E
:101A8000E410E4010B4D6419E45C0A46CD176D0FB8
:101A9000AD18ED10ED004E1B0125B5402C43CD17C0
:101AA0006D0F2D18ED10ED01024EAD19EC5400BF75
:101AB000E1E7000094050020FFB506460F463446D6
:101AC0000DE03D4605E0E9B2E0B2FFF7C5FF681C56
:101AD00085B20398401C8542F5DB601C84B20298F5
:101AE000401C8442EDDBFFBDFFB587B00A98860637
:101AF000B60E09982E38C0B2099009985E2801DD0B
:101B00000BB0F0BD062E04D10120059005200490F5
:101B100022E00C2E04D102200590082004901BE046
:101B2000102E09D102200590082004900998000188
:101B30005449401806900FE0202E09D1042005904A
:101B400010200490099880014F494018069003E046
:101B5000022005900820049040210A98084000289F
:101B600004D04A4802904A48019003E04748019057
:101B7000474802900820039080210A9808400028D6
:101B80003FD0002539E0002729E000241FE0069817
:101B900000780121A140084000280BD0EA000898F5
:101BA00010180019C1B20798C019C3B21846029A9A
:101BB00090470AE0EA00089810180019C1B2079887
:101BC000C019C3B21846019A9047601CC4B203986A
:101BD0008442DCDB0698401C0690781CC7B204984F
:101BE0008742D2DB30460838C6B2082E02DB082016
:101BF000039000E00396681CC5B205988542C2DBDD
:101C00003EE0002539E0002729E000241FE0069887
:101C100000780121A140084000280BD0EA00089874
:101C200010180019C1B20798C019C3B21846029A19
:101C300090470AE0EA00089810180019C1B2079806
:101C4000C019C3B21846019A9047601CC4B20398E9
:101C50008442DCDB0698401C0690781CC7B20498CE
:101C60008742D2DB30460838C6B2082E02DB082095
:101C7000039000E00396681CC5B205988542C2DB5C
:101C800000BF3DE7447D0000447A0000F9190000E0
:101C9000591A0000FFB583B007461646069880061D
:101CA000800E0290402106980840002804D0434846
:101CB00001904348009003E0404800904048019064
:101CC000802106980840002832D000252CE000240E
:101CD0000EE03078802121410840002806D0049A87
:101CE0005219D1B23A19D0B2019A9047601CC4B2CD
:101CF000082CEEDB761C00240FE030788021214197
:101D00000840002807D0049A5219D1B23A19083273
:101D1000D0B2019A9047601CC4B202980838A04221
:101D2000EBDC761C681CC5B202988542CFDB42E032
:101D300000253DE0002416E0307880212141084054
:101D4000002807D0049A5219D1B23A19D0B2019A98
:101D5000904706E0049A5219D1B23A19D0B2009ACB
:101D60009047601CC4B2082CE6DB761C002418E007
:101D70003078802121410840002808D0049A521967
:101D8000D1B23A190832D0B2019A904707E0049ACA
:101D90005219D1B23A190832D0B2009A9047601C59
:101DA000C4B202980838A042E2DC761C681CC5B2B6
:101DB00002988542BEDB07B0F0BD0000F9190000B3
:101DC000591A0000FFB587B006460F461446204654
:101DD000E117490F09184903090C0291E117490F4E
:101DE0000918C910C900611A89B2019110980490AC
:101DF000119800280DD0354803900A983818401ED5
:101E000083B23019401E82B239463046FFF754FE85
:101E10000CE02F4803900A983818401E83B23019FE
:101E2000401E82B239463046FFF7CEFD00200690B4
:101E300046E0002005901DE0002512E0049800789F
:101E4000802129410840002809D0069ABA18D1B249
:101E5000059AD20092195219D0B2039A9047681C81
:101E600085B2082DEADB0498401C04900598401CBC
:101E700080B20590029905988842DDDB002512E0CA
:101E800004980078802129410840002809D0069A4A
:101E9000BA18D1B2029AD20092195219D0B2039A4A
:101EA0009047681C85B201988542E9DB01980028BB
:101EB00002DD0498401C04900698401C80B20690F5
:101EC0000A9906988842B4DB0BB0F0BDF9190000FE
:101ED000591A0000FFB583B005460F46164606980E
:101EE0008006800E0290029810280ED004DC06288E
:101EF00007D00C280FD106E0182808D020280AD1D6
:101F000007E00E2409E0102407E0102405E018245F
:101F100003E0202401E0102400BF00BF3AE0307845
:101F2000802815DD3046FFF719FD0190F9B2E8B2BF
:101F30000090069B019AFFF7ADFEB61C702D04DDE4
:101F400000250298381887B224E0281985B221E0CC
:101F50003278F9B2E8B20090069BFFF7C5FD761C17
:101F6000782D04DD00250298381887B212E030463B
:101F70002038C07F2E2802D1281D85B205E02046DA
:101F8000E10F0918491049198DB20698A02801D10E
:101F9000681C85B230780028C1D107B0F0BD024678
:101FA0001068C840C007C00F704730B50246002017
:101FB00000BF07E08300CC588500134608335C510E
:101FC000431CD8B213795B1C8342F3DC30BD0000A4
:101FD00070B504460D46044960180122294602F0F6
:101FE0005BFE002070BD0000140D024070B5044679
:101FF0000D46034960182946FFF7D1FF70BD000068
:10200000040D024070B504460E4615461E49601880
:102010000022314602F040FE00201C496118B20047
:1020200088502A7818490C396018314602F034FE7D
:102030006A78154910316018314602F02DFEAA78F1
:10204000114914316018314602F026FEEA780E4933
:1020500018316018314602F01FFE2A790A492031F2
:102060006018314602F018FE094880680121C90352
:1020700088436979C9030122D20311400843044906
:102080008860002070BD00000C0D0240000C024072
:10209000000F024010B50346024818188C00025188
:1020A000002010BD000C024070B504460D460449E6
:1020B00060180122294602F0EFFD002070BD0000EB
:1020C000100D024070B504460D46164603496018CF
:1020D0003246294602F0E0FD002070BD080D0240A6
:1020E00008B50020009000BF00980028FCD008BD73
:1020F000FEB50446230003F072FF0A06CACAFED4E6
:10210000E9FDFCCBFBCA04F049FC012001F066FCB0
:102110000546FEF744F9029099490298FEF78DF8BA
:10212000029098490298FEF7D7F914D80E2001F0D2
:1021300055FC002801D094A000E094A00746029826
:10214000FEF7A2F905462A460B4691A19248009750
:1021500003F01AFF18E00E2001F040FC002801D027
:1021600089A000E089A005460298FEF741F90646DD
:102170002B46324689A1884803F006FF39236522A1
:1021800019216220FFF720FC9023834A0821502068
:10219000FFF7A0FE042001F021FC00280ED0002053
:1021A000804918231A46009101901E210A20FFF74A
:1021B00009FE1E210A2004F0A1FB09E00120794953
:1021C00018231A46009101901E210A20FFF7FAFDFC
:1021D000052001F003FC00280ED0002072491823CE
:1021E0001A46009101901E212820FFF7EBFD1E21C9
:1021F000282004F083FB09E001206B4918231A46CC
:10220000009101901E212820FFF7DCFD062001F03F
:10221000E5FB00280ED00020644918231A460091DF
:1022200001901E214620FFF7CDFD1E21462004F01F
:1022300065FB09E001205D4918231A4600910190D1
:102240001E214620FFF7BEFD072001F0C7FB002836
:102250000ED00020564918231A46009101901E21E5
:102260006420FFF7AFFD1E21642004F047FB09E066
:1022700001204F4918231A46009101901E21642025
:10228000FFF7A0FD03220121084600F02BFE75E0B8
:1022900000221146012000F025FE4648FFF7B0FA63
:1022A0006CE000203F4918231A46009101901E213E
:1022B0000A20FFF787FD1E210A2004F01FFB0120E2
:1022C0003D4908703D48FFF79BFA57E0002036492A
:1022D00018231A46009101901E212820FFF772FD55
:1022E0001E21282004F00AFB02203349087003E075
:1022F00039E01AE004E02DE03048FFF781FA3DE0D4
:1023000000202A4918231A46009101901E214620D8
:10231000FFF758FD1E21462004F0F0FA032026495D
:1023200008702648FFF76CFA28E00020204918239F
:102330001A46009101901E216420FFF743FD1E21E3
:10234000642004F0DBFA04201B4908701B48FFF7E7
:1023500057FA13E000221146012000F0C3FD154892
:10236000FFF74EFA0AE001F08FF900221146022031
:1023700000F0B8FD1248FFF743FA00BF00BFFEBDF2
:10238000000020410000C642696E0000636D00003D
:10239000252E316625730000F40200202564257384
:1023A0000000000058780000A0780000E8780000E5
:1023B00030790000512F000021000020C5230000CB
:1023C000153400007CB50446002C06D0082C76D0CD
:1023D0000B2C75D00C2C0DD10DE000208D49087010
:1023E00003220121084600F07DFD03220121104651
:1023F00000F078FD0CE188480078002801D1012028
:1024000000E000208449087082480078401C81491F
:10241000087082480078012806D002282FD00328AF
:102420005AD0042878D183E07A480078032808DB62
:10243000012001F0D3FA054600222946042001F0CC
:10244000BDFB7548007800280ED000207449182381
:102450001A46009101901E210A20FFF7B3FC1E21AD
:102460000A2004F04BFA09E001206D4918231A46AE
:10247000009101901E210A20FFF7A4FC84E065482A
:102480000078032808DB012001F0A8FA05460022A5
:102490002946052001F092FB5F480078002810D003
:1024A0000020604918231A46009101901E2128201F
:1024B000FFF788FC1E21282004F020FA0BE065E0DD
:1024C0006BE00120574918231A46009101901E2104
:1024D0002820FFF777FC57E04E480078032808DBF8
:1024E000012001F07BFA054600222946062001F072
:1024F00065FB4948007800280FD000204A4918237E
:102500001A46009101901E214620FFF75BFC1E2118
:10251000462004F0F3F90AE035E00120424918238F
:102520001A46009101901E214620FFF74BFC2BE03C
:1025300038480078032808D1012001F04FFA0546F9
:1025400000222946072001F039FB33480078002893
:102550000ED00020354918231A46009101901E2103
:102560006420FFF72FFC1E21642004F0C7F909E066
:1025700001202E4918231A46009101901E21642043
:10258000FFF720FC00E000BF00BF41E00020284929
:1025900008702848FFF734F93AE02048007801280D
:1025A00006D002280ED0032816D0042828D11DE01A
:1025B000012001F013FA054601222946042001F00A
:1025C000FDFA1DE0012001F009FA05460122294625
:1025D000052001F0F3FA13E0012001F0FFF90546B0
:1025E00001222946062001F0E9FA09E0012001F064
:1025F000F5F9054601222946072001F0DFFA00BF60
:1026000000BF00200A4908700B48FFF7F9F800BF27
:1026100000BF7CBD2D0000202C00002021000020E8
:1026200058780000A0780000E878000030790000B9
:102630001C000020951800008538000010B5C04629
:10264000C04610BD10B5C046C04610BD1CB50446FE
:1026500021792068884231DA2068401C2060FFF729
:10266000BBF82068810020460830425890231B2187
:102670000A20FFF72FFC2179206888420AD1012027
:102680000F4906231022009101900A210846FFF706
:1026900099FB13E001200A490623102200910190C2
:1026A0000A210846FFF78EFB012006490623102267
:1026B0000091019032210A20FFF784FB1CBD00002D
:1026C0004C7800004078000004484079002804D08D
:1026D00002484088401C014948807047160100208C
:1026E00010B501F073FC31480079002802D00128B0
:1026F0002BD112E02D488079002808D02B48807912
:102700002A498872012008710020488004E00020D6
:10271000264908714880487117E024488079234988
:10272000897A884211D101202049487108464088A1
:1027300008280ADD0846C079002806D0082048800D
:10274000002008700846807A487000BF174840781B
:1027500000281DD015484078144948720020487060
:102760000846407A032803D1092000F0E3FA1CE070
:102770000E48407A012803D10D2000F0DBFA14E066
:102780000A48407A022810D10E2000F0D3FA0CE05B
:102790000648007805494872002008700846407ACB
:1027A000002802D0487A00F0C5FA10BD16010020BA
:1027B0001CB50446230003F012FC0C07466482ABF0
:1027C000ABABAB3DABAB9CAB04F0E8F800F0B0F8C2
:1027D000504802F0B7FA50494E48FFF7E6FB4D4823
:1027E000006881004B480830425890231B210A2082
:1027F000FFF770FB0D2001F0F1F846490968474AE0
:10280000515C88420AD1012045490C2310220091D5
:1028100001901B215A20FFF7D5FA05E027236A22F1
:102820001B215A20FFF7D0F803220121084600F0AF
:1028300059FB6DE000221146012000F053FB39489E
:10284000FEF7DEFF64E03348FEF7E8FF0D2001F0FD
:10285000C5F830490968314A515C88420AD10120E3
:102860002F490C231022009101901B215A20FFF7C1
:10287000A9FA05E027236A221B215A20FFF7A4F8B2
:1028800046E02448FFF7E2FE0D2001F0A7F82149B9
:102890000968224A515C88420AD1012020490C2350
:1028A0001022009101901B215A20FFF78BFA05E0BE
:1028B00027236A221B215A20FFF786F828E01548B3
:1028C0000068002804D0012803D002280ED109E0B6
:1028D00000BF10480068114A115C00220D2001F071
:1028E0006DF904E00F48FEF78BFF00E000BF00BF6A
:1028F0000EE008480068094A115C01220D2001F031
:102900005DF90120084908700848FEF779FF00BF0B
:1029100000BF1CBD2C040020A80000203D7A000050
:1029200068770000153400001C0000208538000086
:102930000020024908600220087170472C04002022
:1029400010B500F02BFA012204210020FFF7BAFB9A
:10295000642004F049F8002204211046FFF7B2FB7E
:10296000642004F041F8012204210020FFF7AAFBB3
:102970000021EC4802F00BFB002206211046FFF775
:10298000A1FB00BF0421E74802F0E4FA0028F9D0D7
:10299000AE21E44802F0F7FA002206211046FFF7C4
:1029A00091FB00BF0421DF4802F0D4FA0028F9D0DF
:1029B0000021DC4802F0E7FA002206211046FFF76A
:1029C00081FB00BF0421D74802F0C4FA0028F9D0E7
:1029D0001021D44802F0D7FA002206211046FFF752
:1029E00071FB00BF0421CF4802F0B4FA0028F9D0EF
:1029F0004021CC4802F0C7FA002206211046FFF71A
:102A000061FB00BF0421C74802F0A4FA0028F9D0F6
:102A10008121C44802F0B7FA002206211046FFF7D0
:102A200051FB00BF0421BF4802F094FA0028F9D0FE
:102A3000CF21BC4802F0A7FA002206211046FFF77A
:102A400041FB00BF0421B74802F084FA0028F9D006
:102A5000A121B44802F097FA002206211046FFF7A0
:102A600031FB00BF0421AF4802F074FA0028F9D00E
:102A7000C821AC4802F087FA002206211046FFF771
:102A800021FB00BF0421A74802F064FA0028F9D016
:102A9000A621A44802F077FA002206211046FFF78B
:102AA00011FB00BF04219F4802F054FA0028F9D01E
:102AB000A8219C4802F067FA002206211046FFF781
:102AC00001FB00BF0421974802F044FA0028F9D026
:102AD0003F21944802F057FA002206211046FFF7E2
:102AE000F1FA00BF04218F4802F034FA0028F9D02F
:102AF000D3218C4802F047FA002206211046FFF746
:102B0000E1FA00BF0421874802F024FA0028F9D036
:102B10000021844802F037FA002206211046FFF710
:102B2000D1FA00BF04217F4802F014FA0028F9D03E
:102B3000D5217C4802F027FA002206211046FFF733
:102B4000C1FA00BF0421774802F004FA0028F9D046
:102B50008021744802F017FA002206211046FFF780
:102B6000B1FA00BF04216F4802F0F4F90028F9D04F
:102B7000D9216C4802F007FA002206211046FFF71F
:102B8000A1FA00BF0421674802F0E4F90028F9D057
:102B9000F121644802F0F7F9002206211046FFF700
:102BA00091FA00BF04215F4802F0D4F90028F9D05F
:102BB000DA215C4802F0E7F9002206211046FFF70F
:102BC00081FA00BF0421574802F0C4F90028F9D067
:102BD0001221544802F0D7F9002206211046FFF7CF
:102BE00071FA00BF04214F4802F0B4F90028F9D06F
:102BF000DB214C4802F0C7F9002206211046FFF7FE
:102C000061FA00BF0421474802F0A4F90028F9D076
:102C10004021444802F0B7F9002206211046FFF790
:102C200051FA00BF04213F4802F094F90028F9D07E
:102C300020213C4802F0A7F9002206211046FFF7A8
:102C400041FA00BF0421374802F084F90028F9D086
:102C50000221344802F097F9002206211046FFF7BE
:102C600031FA00BF04212F4802F074F90028F9D08E
:102C70008D212C4802F087F9002206211046FFF72B
:102C800021FA00BF0421274802F064F90028F9D096
:102C90001421244802F077F9002206211046FFF79C
:102CA00011FA00BF04211F4802F054F90028F9D09E
:102CB000A4211C4802F067F9002206211046FFF704
:102CC00001FA00BF0421174802F044F90028F9D0A6
:102CD000A621144802F057F9002206211046FFF7FA
:102CE000F1F900BF04210F4802F034F90028F9D0AF
:102CF000AF210C4802F047F9002206211046FFF7E9
:102D0000E1F900BF0421074802F024F90028F9D0B6
:102D1000AF21044802F037F903F040FE012003F030
:102D200069FF10BD0008004010B5FDF775FEFDF706
:102D3000D3FE10BD10B50446230003F050F90F096F
:102D40000A0B0C0D0E0F101F111E121D2120280042
:102D500000BF00BF00BF00BF00BF00BF00BF00BF7B
:102D600000BF00200B49488008800B4801682046BE
:102D7000884703F0A3FE0BE000BF00BF00BF00BF09
:102D8000054801682046884703F098FE00E000BF30
:102D900000BF10BD94090020F00000201CB50121E7
:102DA0001C2002F0E9FA0021684601708170C170B0
:102DB00006210020FFF70CF96A4606210020FFF7E4
:102DC00021F904210020FFF703F96A4604210020BD
:102DD000FFF718F9FFF7A8FF1CBD10B5C046C046A5
:102DE00010BD00000D488079002804D00B484088B1
:102DF000401C0A4948800948C079002804D0074887
:102E00000088401C054908800448807A002804D0C6
:102E100002488089401C014988817047940900203C
:102E200010B5C046C04610BD10B5C046C04610BD66
:102E300010B5C046C04610BD10B5C046C04610BD56
:102E40000146012904D0022919D0032944D12DE0DB
:102E500023488079002800D1704721484088204AC3
:102E60009288904209DB1E488079012805D1002014
:102E70001B4A508090710120EEE70020ECE71848D3
:102E8000C079002800D1E7E715480088144A128964
:102E9000904209DB1248C079012805D10020104A70
:102EA0001080D0710120D7E70020D5E70C48807A48
:102EB000002800D1D0E70A488089094AD289904287
:102EC00008DB0748807A012804D10020044A908159
:102ED0000120C1E70020BFE70020C043BCE700009D
:102EE0009409002010B5012804D0022812D003282C
:102EF00029D121E0002903D00123144CA37102E061
:102F00000023124CA37114235343104CA3800023BD
:102F1000638019E0002905D000230C4C2380012395
:102F2000E37102E00023094CE37128235343074C6B
:102F300023810023238007E00023044CA381234640
:102F40009972DA8100E000BF00BF10BD9409002033
:102F5000FEB50446230003F042F80F09FDFCFBFA1E
:102F6000F9F8F7DBF6F5DBDCF4F3DB0002F02CFC20
:102F700003F014FD012000F031FD0546FDF70FFAC6
:102F80000290B0490298FDF758F90290AE490298B4
:102F9000FDF7A2FA14D80E2000F020FD002801D081
:102FA000AAA000E0AAA007460298FDF76DFA054620
:102FB0002A460B46A7A1A948009702F0E5FF18E0B2
:102FC0000E2000F00BFD002801D0A0A000E0A0A082
:102FD00005460298FDF70CFA06462B463246A0A19C
:102FE0009E4802F0D1FF3923652219216020FEF7A7
:102FF000EBFC9023994A08214E20FEF76BFF01203D
:1030000099490E234022009101900A210846FEF7BB
:10301000D9FE082000F0E2FC002809D000209349E6
:1030200018231A46009101901E210A20FEF7CAFEBD
:103030008F48007C00280ED08D48407C00280AD1A3
:1030400001208C4918231A46009101901E21282046
:10305000FEF7B8FE24E08648007C00280ED18448A4
:10306000407C00280AD00120834918231A46009189
:1030700001901E212820FEF7A5FE11E07C48007C6F
:1030800000280DD07A48407C002809D000207B49D8
:1030900018231A46009101901E212820FEF792FE67
:1030A0000D2000F09BFC002809D000207449182353
:1030B0001A46009101901E214620FEF783FE0B2048
:1030C00000F08CFC00280AD001206E4918231A4613
:1030D000009101901E216420FEF774FE0EE00C208A
:1030E00000F07CFC002809D00120674918231A460B
:1030F000009101901E216420FEF764FE0A22012146
:103100000220FFF7EFFE082201210320FFF7EAFE6D
:1031100096E002F059FB012000F060FC0546FDF747
:103120003EF9029047490298FDF787F80290464918
:103130000298FDF7D1F920D80E2000F04FFC0AE0EC
:103140003DE03DE073E05EE04BE049E047E045E014
:1031500064E033E031E0002801D03CA000E03CA076
:1031600007460298FDF790F905462A460B4639A115
:103170003A48009702F008FF18E00E2000F02EFCFD
:10318000002801D031A000E031A005460298FDF7EB
:103190002FF906462B46324631A1304802F0F4FEA4
:1031A0003923652219216020FEF70EFC90232B4A5B
:1031B00008214E20FEF78EFE42E000BF00BF00BF98
:1031C0000A2200210320FFF78DFE00221146022073
:1031D000FFF788FE2D48FEF713FB31E000BF00BF6C
:1031E00000BFE01E2A490870E0B200F0F7FB00289B
:1031F00000D125E0002211460220FFF773FE25488A
:10320000FEF7FEFA1CE000F03FFA00221146022011
:10321000FFF768FE2048FEF7F3FA11E0002211469E
:103220000220FFF75FFE1D48FEF7EAFA08E00022E1
:1032300011460220FFF756FE1948FEF7E1FA00BFDB
:1032400000BFFEBD000020410000C642696E0000C4
:10325000636D0000252E316625730000F402002006
:10326000256425730000000048710000D87200003A
:10327000F4000020E07900009879000090720000CE
:1032800048720000B871000000720000B5470000ED
:103290001D000020D14A000015340000F12000007C
:1032A000954F000070B50446230002F098FE0C070D
:1032B0002C3034979797972397976E9703F06EFB70
:1032C00000F0A0F8464801F03DFD46494448FEF7AD
:1032D0006CFE434800688100414808304258902302
:1032E0001B210A20FEF7F6FD032201210846FFF705
:1032F000F9FD73E0002211460120FFF7F3FD3A4883
:10330000FEF77EFA6AE03648FEF788FA66E034484F
:10331000FFF79CF962E032480068002804D00128D9
:1033200019D002282ED129E0012000F057FB0546D4
:10333000032000F053FB854203D22C48FEF760FACD
:1033400008E0012000F04AFB054600222946022041
:1033500000F034FC17E02648807E002802D00020D0
:10336000244901E0002024490246FDF76FF8054694
:1033700000222946022000F021FC04E01A48FEF752
:103380003FFA00E000BF00BF28E001201B490870A1
:1033900013480068002809D1012000F01FFB0546F2
:1033A00001222946022000F009FC13E01048807E2B
:1033B000002802D000210F4801E000210E480A46F3
:1033C00001461046FDF742F8054601222946022033
:1033D00000F0F4FB0A48FEF713FA00BF00BF70BD0F
:1033E00068040020B4000020153400009518000087
:1033F000F400002000DCB14000209C401C000020B4
:1034000085380000002002490860022008717047DA
:10341000680400201CB50446230002F0E0FD0F09FB
:10342000406DC0ABACADAE37363636369D9C3600FF
:1034300003F0B4FA7F4801F085FC7F497D48FEF730
:10344000B4FD7C48006881007A48083042589023D7
:103450001B210A20FEF73EFD012078490623102299
:10346000009101900A210846FEF7ACFC0120744946
:10347000062310220091019032210A20FEF7A2FCBF
:10348000032201210846FFF72DFDD0E0002211465E
:103490000120FFF727FD6B48FEF7B2F9C7E0FEF702
:1034A0009BF90120654906231022009101900A2111
:1034B0000846FEF787FC012061490623102200918F
:1034C000019032210A20FEF77DFC5A480068401E18
:1034D0005849086008460068002801DA0D20086095
:1034E00054480068810053480830425890231B21FB
:1034F0000A20FEF7EFFC9AE0FEF76EF901204F4933
:1035000006231022009101900A210846FEF75AFC7A
:1035100001204B49062310220091019032210A20FC
:10352000FEF750FC43480068401C424908600846CA
:1035300000680979884202DD00203E4908603D4864
:10354000006881003B480830425890231B210A2024
:10355000FEF7C0FC6BE000BF0A2200210320FFF74A
:10356000C1FC002211460220FFF7BCFC3648FEF7E2
:1035700047F95CE000BF00BF00BFE01E33490870A0
:10358000E0B200F02BFA002800D150E000221146F2
:103590000220FFF7A7FC2E48FEF732F947E0254846
:1035A0000068030002F01BFD0E080C1014181C200C
:1035B00024282C3034383C402648FEF721F934E0EA
:1035C0002548FEF71DF930E02448FEF719F92CE0F4
:1035D0002348FEF715F928E02248FEF711F924E008
:1035E0002148FEF70DF920E02048FEF709F91CE01C
:1035F0001F48FEF705F918E01E48FEF701F914E030
:103600001D48FEF7FDF810E01C48FEF7F9F80CE045
:103610001B48FEF7F5F808E01A48FEF7F1F804E059
:103620000848FEF7EDF800E000BF00BF00BF00BF94
:103630001CBD000000030020300000204C7800007A
:1036400040780000512F0000B54700001D00002009
:10365000D14A0000C54D000045410000AD100000FA
:10366000E15D0000150F0000B1270000A90C00006B
:10367000B5160000A532000099360000915B0000ED
:10368000D9440000315D00000020024908600D208F
:10369000087170470003002070B50446230002F053
:1036A0009EFC0C072C303498989898239898719821
:1036B00003F074F900F0A2F8474801F043FB4749D2
:1036C0004548FEF772FC44480068810042480830D3
:1036D000425890231B210A20FEF7FCFB0322012104
:1036E0000846FFF7FFFB74E0002211460120FFF7B8
:1036F000F9FB3B48FEF784F86BE03748FEF78EF89D
:1037000067E03548FEF7A2FF63E033480068002811
:1037100004D0012819D0022831D12CE0012000F07A
:103720005DF90546022000F059F9854203D92D487C
:10373000FEF766F808E0012000F050F90546002287
:103740002946032000F03AFA1AE02748807E002834
:1037500002D00020254901E0002025490246FCF75F
:1037600075FE054600222946032000F027FA0020B6
:103770001D49487404E01A48FEF742F800E000BF13
:1037800000BF26E001201B4908701348006800288C
:1037900009D1012000F022F9054601222946032023
:1037A00000F00CFA11E01048807E002802D00020C2
:1037B0000E4901E000200E490246FCF747FE05468F
:1037C00001222946032000F0F9F90B48FEF718F80A
:1037D00000BF00BF70BD0000A4040020C000002096
:1037E0001534000095180000F400002000C07F4050
:1037F000000069401C0000208538000000200249BC
:103800000860022008717047A404002010B5002849
:1038100019DA1A4A03071B0F083B9B089B00D25872
:103820008307DC0EFF23A3409A438B071B0E8407FC
:10383000E40EA3401A43114B0407240F083CA408CC
:10384000A4001A5118E00E4A03231B02D218830861
:103850009B00D2588307DC0EFF23A3409A438B07BB
:103860001B0E8407E40EA3401A43054B03242402D5
:103870001B198408A4001A5110BD00001CED00E0C3
:1038800000E100E01CB50446002C02D0082C23D136
:1038900011E003F083F80120104920231A4600911B
:1038A000019014213220FEF78DFA012211461046B4
:1038B000FFF718FB10E0002211460120FFF712FB72
:1038C00007480078002803D00648FDF799FF02E07A
:1038D0000548FDF795FF00BF00BF1CBDE87500005F
:1038E0001C00002015340000512F00001CB50446B8
:1038F000002C04D0082C0DD00C2C4AD120E0012241
:1039000011460320FFF7EEFA042201210846FFF7D3
:10391000E9FA3EE0002211460120FFF7E3FA012216
:1039200000210320FFF7DEFA1B48807FBB2803D16C
:103930001A48FDF765FF02E01948FDF761FF28E02E
:103940001848007819281EDD16480078401E1549D1
:103950000870084600783C2801D101F04BFF11485F
:1039600000781E2801DC01F02FFF03F017F801207A
:103970000D4910235822009101900A480178162021
:10398000FEF720FA04E0012200210320FFF7AAFA43
:1039900000BF00BF1CBD0000F4000020DD4200009D
:1039A000512F00001E0000209870000010B5C04686
:1039B000C04610BD10B5C046C04610BD10B5C046CB
:1039C000C04610BD10B5C046C04610BD10B5C046BB
:1039D000C04610BD10B5C046C04610BD7CB50446FB
:1039E000230002F0FCFA13E30B3B52698097AEC54B
:1039F000E3C8CBCED1D4D7DADDE0E3006C48807EDB
:103A000000281AD06A482030007800280AD0684977
:103A10000888FCF7DFFC674A674B01910090FCF7D0
:103A20004BFC17E062494888FCF7D4FC614A624BC2
:103A300001910090FCF740FC0CE05D4920310978D1
:103A4000002902D05A49098801E0594949880846A5
:103A5000FCF7ACFC0546FCF7F9FC7CBD5448807EC5
:103A600000280AD052498888FCF7B4FC514A524BCE
:103A700001910090FCF720FC03E04D498888FCF799
:103A8000A9FC0546FCF7E2FCE7E74948807E0028F0
:103A90000AD04749C888FCF79DFC464A464B01912D
:103AA0000090FCF709FC03E04149C888FCF792FC50
:103AB0000546FCF7CBFCD0E73D48807E00280AD0C5
:103AC0003B490889FCF786FC3A4A3B4B0191009040
:103AD000FCF7F2FB03E036490889FCF77BFC05465E
:103AE000FCF7B4FCB9E73248807E00280AD03049A0
:103AF0004889FCF76FFC2F4A2F4B01910090FCF78F
:103B0000DBFB03E02A494889FCF764FC0546FCF727
:103B10009DFCA2E72648807E00280AD02449888997
:103B2000FCF758FC234A244B01910090FCF7C4FB9E
:103B300003E01F498889FCF74DFC0546FCF786FC2D
:103B40008BE71B48807E00280AD01949C889FCF7FA
:103B500041FC184A184B01910090FCF7ADFB03E0C3
:103B60001349C889FCF736FC0546FCF76FFC74E77F
:103B70000F48408A71E70E48807D6EE70C48007E52
:103B80006BE70B48C07D68E70948407E65E7084859
:103B9000807E62E70648007F5FE70548407F5CE77C
:103BA0000348C07E59E70248C07F56E7002054E72B
:103BB000F40000209EEFA7C64B37D93F70B588B000
:103BC00006460C461546F7A207CA05AB07C3F848D8
:103BD000817C68464175F648817D68468175F44868
:103BE000C17D6846C175F248417E68460176F0485D
:103BF000817E68464176EE4880880112684681766B
:103C0000EB4801796846C176E948C08801126846E8
:103C10000177E748817968464177E6480068049073
:103C2000330002F0DCF9140D0B0E559AC5FAF8F7C3
:103C30000DF6F5F4F3F2F10D0D0DF00DDC494C80AD
:103C4000ADE1DB48807E002802D00020DA4909E09F
:103C5000E121C9008C4201D1012100E00021084688
:103C6000FCF7A4FB0022134603910290FCF720FC12
:103C700003D00020CE49087402E00120CC4908742A
:103C8000CB48807E002809D02046FCF7A3FBCB4A16
:103C9000CB4B01910090FCF70FFB02E02046FCF7B4
:103CA00099FB03910290FCF7D1FB0446002D02D052
:103CB000BF498C800BE05221C248C1772004010E1D
:103CC00068468176C4760B2105A802F0F7FF66E10D
:103CD000B748807E002802D00020BB4907E0C82CEE
:103CE00001D1012100E000210846FCF75FFB002222
:103CF000134603910290FCF7DBFB03D00020AC4994
:103D0000487402E00120AA494874A948807E00282E
:103D100009D02046FCF75EFBA84AA94B0191009010
:103D2000FCF7CAFA02E02046FCF754FB039102902C
:103D3000FCF78CFB0446002D02D09D49CC800BE0A3
:103D40005221A048C1772004010E684601774477CC
:103D50000B2105A802F0B2FF21E159219948C17752
:103D60009348807E002809D02046FCF733FB934A15
:103D7000934B01910090FCF79FFA02E02046FCF77C
:103D800029FB03910290FCF761FB0446002D02D051
:103D900087490C810BE00121684641742004010E23
:103DA00068468174C474042104A802F087FFF6E019
:103DB00059218448C1777E48807E002809D020465A
:103DC000FCF708FB7D4A7E4B01910090FCF774FAEA
:103DD00002E02046FCF7FEFA03910290FCF736FB66
:103DE0000446002D02D0724844810BE0022168464F
:103DF00041742004010E68468174C474042104A82F
:103E000002F05CFFCBE05EE0C6E0B6E0A6E096E044
:103E100082E072E062E02BE0FFE759216948C17758
:103E20006348807E002809D02046FCF7D3FA634A15
:103E3000634B01910090FCF73FFA02E02046FCF74B
:103E4000C9FA03910290FCF701FB0446002D02D051
:103E5000574884810BE00321684641742004010E19
:103E600068468174C474042104A802F027FF96E018
:103E700059215448C1774E48807E002809D02046F9
:103E8000FCF7A8FA4D4A4E4B01910090FCF714FA4A
:103E900002E02046FCF79EFA03910290FCF7D6FA66
:103EA0000446002D02D04248C4810BE0042168463C
:103EB00041742004010E68468174C474042104A86E
:103EC00002F0FCFE6BE0002C01D0012100E000219B
:103ED00037482030017036490C8000BF002D02D0D9
:103EE00033494C8208E052213648C17769464C7507
:103EF0000A2105A802F0E2FE51E0002D02D02C4973
:103F00008C7508E052212F48C17769468C750A21CB
:103F100005A802F0D3FE42E0002D02D0244804762A
:103F20000CE052212748C1776846C07D2043C1B2CA
:103F30006846C1750A2105A802F0C0FE2FE0002DD9
:103F400002D01B48C47508E052211E48C17769465B
:103F5000CC750A2105A802F0B1FE20E0002D02D0A8
:103F60001348447608E052211648C17769460C761A
:103F70000A2105A802F0A2FE11E0002D02D00C4893
:103F8000847608E052210F48C17769464C760A21B1
:103F900005A802F093FE02E005490C7700BF00BFC0
:103FA00008B070BD520000000000000000000000DA
:103FB000F40000205C6E000000DCB14052B81E85A9
:103FC000EB5104404201002000C07F4010B50020AA
:103FD000304988710C21FEF709F8002803D101202F
:103FE0002C49887154E000214020FDF7FFFF002894
:103FF00003D10220274988714AE001214020FDF7C2
:10400000F5FF002803D103202249887140E00221F6
:104010004020FDF7EBFF002803D104201D498871E3
:1040200036E009210020FDF7E1FF002803D105203B
:10403000184988712CE00A210020FDF7D7FF0028DD
:1040400003D106201349887122E00B210020FDF7DF
:10405000CDFF002803D107200E49887118E00D48D4
:10406000408801280BDD0B484088062807DA00202D
:10407000084948800846807A0870002008720020AD
:104080000449487148704880087101200872C8715D
:1040900010BD0000160100207CB50446230001F08D
:1040A0009EFF0C072D2E2C28292A2B3E3E3E313E0A
:1040B00002F074FC002211460120FEF713FF0120DC
:1040C000184920231A46009101900F211E20FDF768
:1040D00079FE1120FFF782FC05462A4612A11448FA
:1040E00001F052FF9023124A17215020FDF7F2FEF3
:1040F00015E000BF00BF00BF00BF00BF00BF01F060
:1041000085FA0CE01220FFF769FC022803D1094868
:10411000FDF776FB02E00848FDF772FB00BF00BF29
:104120007CBD0000E87600004525303258000000D4
:10413000F4020020DD420000512F000010B5C046FF
:10414000C04610BD1CB50446230001F048FF0C0713
:10415000466482AEAEAEAE3DAEAE9FAE02F01EFC89
:1041600000F0B4F8524800F0EDFD52495048FDF718
:104170001CFF4F48006881004D480830425890238A
:104180001B210A20FDF7A6FE0A20FFF727FC48495D
:104190000968494A515C88420AD1012047490C23E9
:1041A0001022009101901B215A20FDF70BFE05E023
:1041B00027236A221B215A20FDF706FC0322012136
:1041C0000846FEF78FFE70E0002211460120FEF740
:1041D00089FE3B48FDF714FB67E03548FDF71EFB01
:1041E0000A20FFF7FBFB32490968334A515C8842D9
:1041F0000AD1012031490C231022009101901B218A
:104200005A20FDF7DFFD05E027236A221B215A20F3
:10421000FDF7DAFB49E02648FEF718FA0A20FFF717
:10422000DDFB23490968244A515C88420AD10120F8
:1042300022490C231022009101901B215A20FDF7E6
:10424000C1FD05E027236A221B215A20FDF7BCFB94
:104250002BE017480068002806D0012805D0022866
:1042600004D003280FD10AE000BF00BF1048006847
:10427000114A115C00220A20FFF7A0FC04E010485C
:10428000FDF7BEFA00E000BF00BF0EE0084800687E
:10429000094A115C01220A20FFF790FC012009491C
:1042A00008700948FDF7ACFA00BF00BF1CBD000054
:1042B000780300207C000020327A0000687700003C
:1042C000153400001C000020853800000020024941
:1042D0000860032008717047780300207CB504460D
:1042E0000B2C47D004DC002C07D0082C2FD12FE05A
:1042F0000C2C79D00E2CF9D177E06B48807FBB284D
:1043000003D101206949087002E000206749087064
:1043100000206549887702F041FB902364A21B21AD
:104320001920FDF7D7FD0020634910231A4600919C
:1043300001901B215A20FDF745FD00221146012066
:10434000FEF7D0FD002211460320FEF7CBFDA9E0C9
:1043500001F050FA01F04EFA01F04CFA01F04AFA7D
:1043600001F048FA01205149087000221146FEF779
:10437000B9FD97E04D480078002802D0012831D1DE
:1043800005E0022201210846FEF7ACFD2AE00020EC
:104390004A4908704448807E002802D000204849DD
:1043A00001E0002047490246FCF750F8054600228C
:1043B00029460220FFF702FC3B48807E002802D0FD
:1043C0000020414901E0002040490246FCF73EF848
:1043D0000546002229460320FFF7F0FB3C48FDF785
:1043E0000FFA00BF00BF5DE035E0304800780028DC
:1043F00003D0012001F0DAF901E001F0EDF93548D0
:104400000078401C33490870022201210320FEF786
:1044100069FD304800780A2806DA2B236A221B211E
:104420005A20FDF7D1FA15E02A4800780A280EDB59
:104430002848007814280ADA00201F4910231A4659
:10444000009101901B215A20FDF7BCFC02E00020E6
:104450002049087026E01F480078401C1D4908705C
:10446000084600780A2806DA2B236A221B215A20E4
:10447000FDF7AAFA15E0174800780A280EDB154860
:10448000007814280ADA00200B4910231A460091FC
:1044900001901B215A20FDF795FC02E000200D49F8
:1044A000087000BF00BF7CBDF4000020EC000020BD
:1044B000C7EBB3A4B0B40000787900001C00002062
:1044C00000DCB14000209C4000C07F4000006940FB
:1044D00085380000EB0000201CB50446032C70D08A
:1044E00006DC002C09D0012C36D0022C74D14FE010
:1044F000082C28D00E2C6FD146E002F04FFA00F0C5
:1045000077F8364800F01EFC35493448FDF74DFD7C
:1045100032480068810031480830425890231B21FE
:104520000A20FDF7D7FC00202E4910231A460091DF
:1045300001901B215A20FDF745FC00221146012065
:10454000FEF7D0FC48E0002211460120FEF7CAFC2D
:104550002548FDF755F93FE02048FDF75FF91F4872
:104560000068002809D11F4910231A4600910190C4
:104570001B215A20FDF726FC05E02B236A221B2174
:104580005A20FDF721FA27E01848FDF739F923E012
:104590001248FEF75BF811480068002809D111495C
:1045A00010231A46009101901B215A20FDF70AFCA6
:1045B00005E02B236A221B215A20FDF705FA0BE0A8
:1045C000FFE706480068012803D10748FDF718F9FE
:1045D00000E000BF00BF00BF00BF1CBD1C050020E5
:1045E000D80000207879000015340000DD4200007A
:1045F0000020024908600120087170471C05002056
:10460000024608784B78984201D10120704708781B
:104610004300881CC05C10700878401CC0B2087051
:10462000C82801DB002008700020EFE74A7853001B
:104630008A1CD0524A78521CD2B24A70C82A01DB76
:1046400000224A704A780B789A4207D10A78521CA5
:10465000D2B20A70C82A01DB00220A70704700003B
:104660001CB50446230001F0BAFC0D088384827E49
:104670007F8081859999992E9900022211462820E0
:10468000FCF72AFC02F08AF93C2201210846FEF7D9
:1046900029FC012211460320FEF724FC0120404999
:1046A00020231722009101900F210846FDF78AFB75
:1046B00001203C4920231122009101900F215F200D
:1046C000FDF780FB6AE038480078002806D0012812
:1046D00015D0022824D0032842D132E0902333A2FF
:1046E0000F212D20FDF7F6FB142201210320FEF7F8
:1046F000F9FB2D480078401C2B49087031E09023CD
:104700002AA20F214120FDF7E5FB142201210320FD
:10471000FEF7E8FB24480078401C2349087020E09D
:10472000902322A20F215520FDF7D4FB1422012152
:104730000320FEF7D7FB1C480078401C1A4908707C
:104740000FE01F235F220F212820FDF73DF91422DF
:1047500001210320FEF7C6FB00201349087000E08A
:1047600000BF00BF1AE000BF00BF00BF00BF00BF16
:1047700000BF00BF022211460020FCF7ADFB002263
:1047800011460120FEF7AEFB002002F0A7F8002042
:10479000054908700648FDF733F800BF00BF1CBD8F
:1047A000E0770000807700002E0000203E0000002F
:1047B000512F0000FEB505462B0001F010FC0F093B
:1047C00089C874FEFDFCFBFA7D7373F988C9730018
:1047D000002211461320FFF7F1F9AD48807E002832
:1047E00002D0AC48AC4901E00020AC490246FBF7DE
:1047F0002DFEAB490880A648807E002802D0A9483B
:10480000A94901E00020A9490246FBF71FFEA8497B
:104810000880A3490988A64A1288881A3121C94309
:10482000FBF78CFC0646FBF7AFFDA24908600020B1
:10483000A149087002F0B2F80120FFF7CFF89C49B7
:104840000988401A0090FBF7AAFD074699480168BD
:104850003846FBF7F2FC06469849FBF795FC0190B9
:10486000FBF7DFFDC4B223466F2200216C20FDF769
:10487000ABF837236F2221466C20FDF71DF901208C
:10488000FFF7ACF80746FBF78AFD064632461921CA
:10489000322002F0D5F8FCF78BFE032201210846F6
:1048A000FEF720FBF1E0002211460120FEF71AFB83
:1048B0008348FCF7A5FFE8E0FEF7E6FE002211467C
:1048C0000220FEF70FFB7F48FCF79AFFDDE000BFF8
:1048D000032201210846FEF705FB042201210320E3
:1048E000FEF700FB002000F061FF0120FFF776F8E3
:1048F0000746FBF754FD064632461921322002F0E6
:104900009FF80120FFF76AF869490988401A00906A
:10491000FBF745FD0746674801683846FBF78DFC05
:1049200066490190FBF730FC0646FBF77AFDC4B2FE
:1049300023466F2200216C20FDF746F837236F22B3
:1049400021466C20FDF7B8F8FCF732FE9DE000BF71
:10495000032201210846FEF7C5FA042201210320A3
:10496000FEF7C0FA012000F021FF0120FFF736F822
:104970000746FBF714FD064632461921322002F0A5
:104980005FF80120FFF72AF849490988471A384695
:10499000FBF705FD0646474801683046FBF74DFC2E
:1049A00046490090FBF7F0FB0190FBF73AFD05E06C
:1049B00029E05CE015E013E011E00FE0C4B223460B
:1049C0006F2200216C20FCF7FFFF37236F22214666
:1049D0006C20FDF771F8FCF7EBFD56E000BF00BF5F
:1049E00000BFE81E38490870E8B2FEF7F7FF00285C
:1049F00000D14AE0002211460220FEF773FA334844
:104A0000FCF7FEFE41E000F0DFFE0120FEF7E6FFCE
:104A10000746FBF7C4FC064632461921322002F055
:104A20000FF80120FEF7DAFF21490988471A3846B6
:104A3000FBF7B5FC00901F4801680098FBF7FDFBF1
:104A40001E490190FBF7A0FB0646FBF7EAFCC4B247
:104A500023466F2200216C20FCF7B6FF37236F221C
:104A600021466C20FDF728F8FCF7A2FD0DE000229E
:104A700011460320FEF736FA002211460120FEF708
:104A800031FA0F48FCF7BCFE00BF00BFFEBD0000BE
:104A9000F40000209A9999999929864000209C4019
:104AA000280000203333333333B3534000006940D0
:104AB0002A000020240000202000002000005C428A
:104AC000512F0000153400001D000020D14A0000C5
:104AD000FEB505462B0001F082FA0C07B9BAB4B551
:104AE000B6B7B8A2C3C3ABC301F058FF002211464A
:104AF0000320FEF7F7F93C2201210846FEF7F2F900
:104B000059480078012806D0022817D0032828D059
:104B100004284CD138E00420FEF760FF0646FBF77E
:104B20003EFC044622461921322001F089FF9023E1
:104B30004EA208215020FDF7CDF938E00520FEF700
:104B40004DFF0646FBF72BFC044622461921322076
:104B500001F076FF902346A208215020FDF7BAF914
:104B600025E00620FEF73AFF0646FBF718FC044650
:104B700022461921322001F063FF90233DA2082133
:104B80005020FDF7A7F912E00720FEF727FF0646A1
:104B9000FBF705FC044622461921322001F050FFA4
:104BA000902335A208215020FDF794F900BF00BFE3
:104BB0000220FEF713FF0746FBF7F1FB06462146EE
:104BC000FBF78AFC0AD30320FEF708FF0746FBF732
:104BD000E6FB06462146FBF789FC03D22748FCF793
:104BE0000FFEFEBD2048007800F084FD012024491E
:104BF00020231A460091019014210A20FDF7E2F8C3
:104C0000032201210846FEF76DF92046FBF709FC57
:104C10000646002231461320FEF7D0FF20E0002296
:104C200011460120FEF75EF91648FCF7E9FD17E092
:104C3000002211460120FEF755F91248FCF7E0FD6D
:104C40000EE000BF00BF00BF00BF00BF00BF0022DA
:104C500011460120FEF746F90A48FCF7D1FD00BFD6
:104C600000BF00BFBDE700001D0000204D31000067
:104C70004D3200004D3300004D340000B94C0000AF
:104C800068750000512F000010B5C046C04610BD29
:104C900010B5C046C04610BD10B5012A05D1036845
:104CA00001248C402343036004E0036801248C400A
:104CB000A343036010BD00001CB50446230001F0AF
:104CC0008EF90906282927232425262D360001F0F0
:104CD00065FE002211460120FEF704F90120154966
:104CE00020231A46009101900F211E20FDF76AF83B
:104CF000902311A217215020FDF7ECF80122114654
:104D00001046FEF7EFF812E000BF00BF00BF00BF83
:104D100000BF00BF0A48FCF773FD08E000221146FF
:104D20000120FEF7DFF80648FCF76AFD00BF00BF70
:104D30001CBD0000E8760000B3ACCFDE0000000030
:104D4000512F00001CB50446206800280AD101201C
:104D50001649062310220091019032210A20FDF706
:104D600031F822E02179206888420AD101201049D7
:104D700006231022009101900A210846FDF722F82F
:104D800013E001200A4906231022009101900A2114
:104D90000846FDF717F80120044906231022009168
:104DA000019032210A20FDF70DF81CBD407800006B
:104DB0004C78000000200249086004200871704708
:104DC0003C0300201CB50446230001F008F90C0741
:104DD000476685B2B2B2B23EB2B2A2B201F0DEFD17
:104DE000FFF7E8FF5448FFF7ADFF54495248FDF77D
:104DF000DCF85148006881004F4808304258902341
:104E00001B210A20FDF766F80820FEF7E7FD4A4956
:104E1000096849004A4A515A88420AD10120494941
:104E20000C231022009101901B215A20FCF7CAFF8D
:104E300005E027236A221B215A20FCF7C5FD032227
:104E400001210846FEF74EF873E0002211460120CA
:104E5000FEF748F83C48FCF7D3FC6AE03648FCF71C
:104E6000DDFC0820FEF7BAFD334909684900344AE1
:104E7000515A88420AD1012032490C231022009154
:104E800001901B215A20FCF79DFF05E027236A2291
:104E90001B215A20FCF798FD4BE02748FDF7D6FB75
:104EA0000820FEF79BFD244909684900244A515A0D
:104EB00088420AD1012023490C231022009101903D
:104EC0001B215A20FCF77EFF05E027236A221B21C5
:104ED0005A20FCF779FD2CE017480068030001F028
:104EE0007EF8050405060711150000BF00BF00BFCE
:104EF000114800684000124A115A00220820FEF7AB
:104F00005DFE04E01048FCF77BFC00E000BF00BF42
:104F10000FE0094800684000094A115A01220820A0
:104F2000FEF74CFE0120094908700948FCF768FCAF
:104F300000BF00BF1CBD00003C0300206800002033
:104F4000287A000068770000153400001C0000205B
:104F500085380000024690680840002801D00120F2
:104F600070470020FCE702460020106008784B786C
:104F700018438B781843CB781843402318431060AC
:104F80000020906070470246D16000207047416069
:104F90007047000010B50446230001F020F80F0907
:104FA0001213110D0E0F101C1C1C1C1C15141C00C0
:104FB000002001F01FFE0EE000BF00BF00BF00BFD9
:104FC00000BF00BF00BF00BF012001F013FE034877
:104FD000FCF716FC00BF00BF10BD0000512F000001
:104FE00010B5C046C04610BD70B5044600252078F7
:104FF000030000F0F4FF0504050C10181C0018E075
:10500000032000F035FA032000F0FCF911E0032042
:1050100000F0D2F90DE00321084600F037FA032032
:1050200000F000FA05E0072000F094F901E0042503
:1050300000BF00BF2078012100F00CF8207800F0BC
:1050400001FA607800F05EF9A07800F06FF9284668
:1050500070BD000070B505460C46002600F088FFC4
:10506000002C01D0012000E0002004462B0000F0BD
:10507000B6FF05041731456276003B4800684008DA
:105080004000E107C90F08433749086000BF002C02
:1050900005D03548C0680005C00F0028F7D060E093
:1050A0003248C068032108433049C8602E48006870
:1050B0000221884361000222114008432A49086006
:1050C00000BF002C05D0284800694006C00F00280A
:1050D000F7D046E02448006804218843A100042258
:1050E000114008432049086000BF002C05D01E482D
:1050F0004069C004C00F0028F7D032E01B48403898
:10510000C06803218903084318494039C86016481C
:10511000006808218843E100082211400843124931
:10512000086000BF002C05D00F4880694006C00F02
:105130000028F7D015E00C480068102188432101B1
:105140001022114008430849086000BF002C05D018
:105150000548C06B4003C00F0028F7D001E00426CB
:1051600000BF00BF304670BD00200040C00D0240AF
:1051700030B589B000241422564904A8FAF7F2FF8A
:105180005448143000680390002000900190029071
:1051900051480188684601814F4841886846C1806E
:1051A0004D488188684681804B48C1886846418067
:1051B0004948203001886846018048480068000658
:1051C000450F2B0000F00BFF05042E303E41780008
:1051D0004248C0684005400D69460989884201D1AE
:1051E000089C1EE03D48C0684005400D6946C988DE
:1051F000884201D1079C14E03848C0684005400D42
:1052000069468988884201D1069C0AE03348C06813
:105210004005400D69464988884201D1059C00E05F
:10522000049C4BE02E4C49E0684600882B494969B4
:105230008905890D884202D16846C48901E0684623
:1052400084893BE00124E40338E02448C06B8007F4
:10525000800F032829D1684600892049C96849057B
:10526000490D884201D1089C20E06846C0881B494E
:10527000C9684905490D884201D1079C16E0684676
:1052800080881649C9684905490D884201D1069CA4
:105290000CE0684640881149C9684905490D8842B3
:1052A00001D1059C02E0049C00E00D4C0B48C06B52
:1052B000C005000F444301E0002400BF00BF0748C1
:1052C00000684005410F2046C8400446204609B00A
:1052D00030BD0000606E0000000C10000020004097
:1052E0000048E80110B50024FFF742FF04460448D7
:1052F0000068C004810F2046C8400446204610BD07
:105300000020004010B5044600F032FE0648006858
:105310000721090288432102072212021140084393
:1053200001490860002010BD0020004010B504466F
:1053300000F01EFE064800680321C9028843E1020E
:105340000322D2021140084301490860002010BD29
:105350000020004010B501460020064AD26B07230A
:10536000DB039A43CB030724E40323401A43014B96
:10537000DA6310BD0020004070B504460D462A4691
:1053800021460248FFF788FC002070BD2020004025
:1053900001464A00064BD21812885005400D054AB6
:1053A000D268D20AD2020243024BDA600020704770
:1053B000000C10000020004010B501460020064AF5
:1053C000526903239B029A438B020324A4022340C5
:1053D0001A43014B5A6110BD0020004001464A00AB
:1053E000064BD21812889005800D054A5269920A20
:1053F00092020243024B5A6100207047000C1000D9
:105400000020004010B501460020054A12693023F3
:105410009A430B01302423401A43014B1A6110BDFB
:105420000020004010B501460020054A9269302353
:105430009A430B01302423401A43014B9A6110BD5B
:105440000020004070B504460025264600F090FD7F
:1054500006480068E02188437101E02211400843BA
:105460000249086000F02CF8284670BD002000407A
:1054700001460020044A1269920892008B079B0F94
:105480001A43014B1A6170470020004030B50246B4
:1054900000200A4B9B690C24A34394000C252C404C
:1054A0002343064CA36123469B699B089B008C0702
:1054B000A40F2343014CA36130BD00000020004035
:1054C00010B5FFF755FE0149086010BD000000202F
:1054D00010B5FFF7F5FF10BD10B5C046C04610BDB2
:1054E00010B5C046C04610BD10B500F011F810BD93
:1054F00010B5C046C04610BD10B5C046C04610BD70
:1055000010B5C046C04610BD10B5C046C04610BD5F
:1055100010B500210220FBF775FE012809D1FDF727
:1055200061FCFDF7D1F8FBF7CBFC00210220FBF773
:105530005BFE10BD10B5C046C04610BD10B500F0F2
:1055400001F810BD10B50021274800F08CF80028A4
:1055500048D00021244800F067F8234800F0C6F83E
:1055600022490870224921480078FFF75FF8214856
:105570000078002804D001280AD0022831D117E091
:105580001A4800789B2802D101201A49087028E0A7
:10559000164800781849087008460078172803DC78
:1055A00002201449087002E000201249087018E037
:1055B00011480078401E10490870084600780028FD
:1055C0000ED10A4800789D2807D109482038807FED
:1055D000401CC1B206482038817700200549087078
:1055E00000BF00BF10BD00000001004014000020FB
:1055F00062010020180000201900002010B50121D0
:10560000014801F05BFB10BD8670000010B55B2106
:105610000348C1770121034801F050FB10BD000091
:10562000420100208770000070B504460D4600223C
:10563000294620461430FFF72FFB002070BD70B5BF
:1056400004460D4601222946201DFFF725FB0020B8
:1056500070BD70B504460D4601222946201DFFF796
:105660001BFB002070BD70B504460D460026294680
:1056700020461030FCF793FC0646304670BD000013
:10568000FEB505460C460127174903C90191009054
:10569000002C01D10420FEBD002068606088617884
:1056A0000843A1880843217808436860207840288F
:1056B00002D02078C02813D1A088C117C90D0918BD
:1056C000491289006A46515A8EB2E268B2401146C8
:1056D000A068FAF71DFDA86104212846FFF7AFFF77
:1056E00000273846D7E70000786E000001460868BA
:1056F000C0B2704738B5044606A0006800906846FE
:10570000447058210448C1770221684601F0D6FA56
:1057100038BD0000580000004201002070B504466A
:105720000D4600BF03212046FFF79DFF0028F9D05A
:105730002068000A0002E9B20843206000BF01218E
:105740002046FFF790FF0028F9D001212046FFF7FF
:105750006BFF002070BD000010B553210348C177D6
:105760000121034801F0AAFA10BD00004201002007
:105770008170000010B554210348C177012103480E
:1057800001F09CFA10BD0000420100208270000070
:1057900010B555210348C1770121034801F08EFA65
:1057A00010BD0000420100208370000038B504469F
:1057B00004A00068009068464470022101F07EFA5F
:1057C00038BD00005A00000010B50121014801F069
:1057D00075FA10BD8070000010B556210348C177DE
:1057E0000121034801F06AFA10BD000042010020C7
:1057F0008470000010B50121014801F05FFA10BD6E
:105800008570000010B50446A07F5038030000F0FA
:10581000E6FB0D08575F6C6D6E6F81A4A5AFB7C432
:10582000C800E07F604908772020005D4882212081
:10583000005D88752220015D5B48C1752220005DF6
:1058400004210840584908762320015D56484176D6
:105850002420015D544881762520005D0002262128
:10586000095D0843504988802720005D00022821F7
:10587000095D08434C49C8802920005D88772A20AB
:10588000005D00022B21095D0843474908812C2057
:10589000005D00022D21095D0843434948812E2007
:1058A000005D00022F21095D08433F4988813020B7
:1058B000005D00023121095D08433B49C88171E068
:1058C000E07F00022021095D08433749488069E0F4
:1058D000A17F3F20005D814200D063E0012032497A
:1058E00048770B20FDF726FA5CE000BF00BF00BF41
:1058F000A17F3F20005D814200D053E0E07F00287F
:1059000001D0012000E00020274948770B20FDF757
:1059100011FA47E0E07F002809D0E07F2249C876ED
:10592000012001F067F92148FBF76AFF12E020200F
:10593000005D012805D101F05DF91D48FBF760FF0E
:1059400008E02020005D022804D102221146104602
:10595000FBF7C2FAFFF752FE24E000BFA17F3F2011
:10596000005D814200D01DE00B20FDF7E3F919E056
:10597000E07F00022021095D08430B49488011E0C7
:10598000A17F3F20005D814200D00BE0E07F06490F
:10599000C8770B20FDF7CEF904E00B20FDF7CAF91C
:1059A00000E000BF00BF10BDF400002099400000DF
:1059B00061460000F8B5044600200090002500264E
:1059C0003E20005D002800D1F8BD684601F0E0F9F6
:1059D000002804D100213E2001550125BDE0684684
:1059E00001783C20025D005D401CC3B23C200355A1
:1059F000A15460480078030000F0F1FA05040C1F80
:105A00006F93AC00684600789B2802D10120594969
:105A10000870A0E06846007803280BDD684600782F
:105A2000182807DA6846007853490870022051495F
:105A3000087001E0012590E08DE0504800780002F8
:105A40006946097808434D490880084600884C4952
:105A500088421DD1684602783D20005D401E2146E7
:105A60001E310A543C20005D4349097888420FD119
:105A7000002044490870684601784248027800785E
:105A8000401C404B1870404881540320394908702D
:105A90003C20005D38490978884210D100203949FE
:105AA000087068460178374802780078401C354B0A
:105AB00018703548815403202E4908700CE0684660
:105AC00000783D21095D3D22125D521CD3B23D227A
:105AD000135522461E3250543DE06846017829484D
