:020000040000FA
:10000000A00B0020D5000000EF000000E120000060
:1000100000000000000000000000000000000000E0
:10002000000000000000000000000000F3000000DD
:100030000000000000000000F5000000754F000007
:10004000BD390000C5390000CD390000D5390000A8
:100050001518000085540000C9540000D154000058
:10006000292E0000312E00001D4C0000254C000000
:100070003D260000452600006D5400007554000028
:100080007D540000212E00008D5400009554000086
:100090009D540000AD3900006D5D0000F14000008E
:1000A000EB090000B5390000B55C0000BD5C000044
:1000B000392E0000DB2D00005119000071150000E1
:1000C0000348854600F05CFC004800473B6C00009C
:1000D000A00B002009480A4A002100A1814200D952
:1000E0000244084802600848804708480047FEE785
:1000F000FEE7FEE7FEE7FEE7FEE700000000002067
:100100000000000008ED00E065540000C1000000A0
:1001100030B50B46014600202022012409E00D469F
:10012000D5409D4205D31D469540491B2546954027
:1001300040191546521E002DF1DC30BD70B500246B
:100140002546002801DA01244042002901DA012570
:100150004942FFF7DDFFAC4200D04042002C00D006
:10016000494270BD03460B439B0703D009E008C911
:10017000121F08C0042AFAD203E00B780370401C57
:10018000491C521EF9D27047F8B502464A40D40FB6
:1001900042004B0052085B089A4202D202460846CF
:1001A00011464A0023D0C30D4A00DDB2120EAD1A2B
:1001B000202D35DA49020126490AF6058A19002C54
:1001C00000D0524220214F1B1146B9402A4110183D
:1001D000C20D9A4221D0002C17D0012D08DCDA057F
:1001E000801AD20F8019D207DBB200F0D2F9F8BD25
:1001F000DA05801A012340001B06C01880185A42F5
:100200008018CA0F1043490007E04908C20711438C
:10021000DA05801A80194008801800F0B2F9F8BD9C
:1002200061000122511A001BF7E70122D207514059
:10023000AAE70122D2075040A6E770B502464A401D
:10024000D50F40004A00ED0740085208002814D09E
:10025000002A12D0C40DD30D41020120C005520264
:10026000490A520AE41A091812187D34914201D33E
:10027000641C00E04900002C01DA002070BD00235E
:10028000914201D3891A0343400849000028F7D15D
:1002900000290AD0914202D10121C90705E091420B
:1002A00001D2012101E00121C943E005C018401934
:1002B00000F067F970BD0000F0B51FB488B00B996D
:1002C0000998002448400999C00F4900490809913C
:1002D000C0070B990090490049080B9109990898AB
:1002E000A64608431CD00B990A98084318D00998D1
:1002F00001244000420D4800410D099824050003E7
:10030000000B204309900B980003000B20430B9037
:1003100050181C494018002201901446104605E070
:10032000002001460DB0F0BD032801DA034600E0CD
:1003300003239C46C11A0AAE0AE05F0008ADED5BDC
:100340004F00F75B7D430027AA187C41491C5B1EC8
:100350006145F2DD410004AB5A522104120C0A43FC
:10036000240C401C0828DFDB01980290009970469D
:1003700001910090059B049A0799069800F04FF9A7
:10038000D0E700000DFCFFFFC217C10F504010B5B1
:100390004018CA079623002100F0FBF810BD10B5E5
:1003A00000229623114600F0F4F810BD0EB5C217D6
:1003B000C10F5040CA0740180021054B029301921B
:1003C00000910A460B4600F02AF903B000BD000078
:1003D000330400000EB505490291002100910A4640
:1003E0000B46019100F01BF903B000BD330400007F
:1003F000C20F410040020123400ADB05D207090E6B
:10040000C0187F2901DA00207047962903DC962363
:10041000591AC84001E096398840002AF4D0404279
:100420007047410040020122400AD205090E80189F
:100430007F2901DA00207047962903DC9622511AA1
:10044000C840704796398840704700004A00090349
:100450000123090B1B051943094B10B5520D9A4294
:1004600001DA002010BD064B34339A4203DC9A1A9D
:1004700000F076F810BD03495118884010BD000007
:10048000FF030000CDFBFFFFC20FD2074000400872
:100490000BD0C10D0723DB01C91840020905400A32
:1004A0001143C208400711437047002001467047BE
:1004B00010B5002904DB0124E40740428C412146A9
:1004C000002B04DB1C460123DB075242A3418B4275
:1004D00000D1824210BD00000122D207002800DBBB
:1004E000101A002900DB511A814270470122D207FD
:1004F000002800DB101A002900DB511A88427047DF
:10050000F0B51FB40646002082B005464024019194
:1005100000901BE0019922460F46304600F020F87B
:10052000049A059B801A994110D310461946224619
:1005300000F038FA361A8F41019722460120002137
:10054000009F00F02FFA38184D4100902046641E9D
:100550000028DFDC019B00982946324607B0F0BD39
:1005600010B5202A04DB0846203AD040002110BDF7
:100570000B46D340D0402024A21A9140084319468C
:1005800010BD002904DA401C490001D14008400098
:10059000704770B40024050C05D11024000402D16A
:1005A000002921D01124050E01D100020834050FC5
:1005B00001D10001241D850F01D18000A41C002859
:1005C00001DB4000641C002908D020252E1B0D46AD
:1005D000F540A14000D001212943084301061B1B1F
:1005E000000ADB1D02D5002070BC7047DB0518181F
:1005F00080180029F8DA401C4900F5D170BC400889
:100600004000704710B5002B08DA0024401C6141FF
:1006100092185B411A4301D14008400010BDF0B56B
:100620001FB482B005460C0003D0084605F08AFCD2
:1006300002E005F087FC2030024600902146284663
:1006400000F0B0F9049B059A04460F461843114385
:10065000084314D0184610431BD0009840210A1AB2
:1006600018460599FFF77CFF05460E46009A059946
:10067000049800F097F9084305D0012004E02046D3
:10068000394607B0F0BD0020C11705430E432C4387
:10069000374300990E986305401A7905E40A002251
:1006A0000C43FD0A0A3002D500200146E9E70105A6
:1006B000101969410C9C0D9D00196941FFF7A2FFBB
:1006C000DFE70000F0B507460846584087B0C00F86
:1006D000049048000E46590040084908BC1A884159
:1006E00005D2384631461E4617460B46024658008C
:1006F000400810434CD0300D039040055900400D88
:10070000490D0590401A0290402872DA1803012121
:10071000000B09050843019004980092002805D0B9
:100720000199524200208841009201900298402194
:100730000A1A0199009800F035F905460C466B46F7
:1007400007CB00F03FF9C0197141039A0E0D002349
:10075000D71756401A467A40164344D0049A002AC6
:100760002DD0029A012A039A15DC1205C01A914174
:1007700001263605001C7141D20F059ED207009359
:10078000019202962A462346FFF749FF07B0F0BDC3
:1007900038463146FAE71605224A0F46B218C01A03
:1007A000B74101210905001C4F4100187F41114646
:1007B00018187941E20F10436D19644113E0E20704
:1007C0006D0815436408C2071443039A01261205F5
:1007D000C01A91413605001C7141CE0740083043D4
:1007E0004908C01851412A462346FFF70BFFCDE7C1
:1007F000FFE7049801224000C117121A00238B4121
:1008000004983146C417381AA141EEE730B40124E8
:10081000E407634030BC55E730B40124E40761408D
:1008200030BC4FE70000E0FFF0B50C465C4085B0FF
:10083000E40FE40703944C00002664085900944632
:10084000490802460296224321D062460A431ED03E
:100850006200570D4A000E032303550D0124024682
:100860002C492405781B1B0B360B401823432643C9
:10087000614600901C46501AB44103D30098401CB6
:10088000009002E0921800985B41002803DA0020F3
:10089000014605B0F0BD0020012109050746864646
:1008A00011E064461D46141BB54106D36546521B34
:1008B000B341744607430C43A646CD074008490898
:1008C000284392185B4105460D43EAD11046184370
:1008D00013D06046194650407140084306D0604628
:1008E000101AB34106D20122002306E000220123A0
:1008F000DB0702E00122D243531000987446010541
:10090000381C6141029C039D00196941FFF77AFE82
:10091000BFE70000FD0300004A0009030123090BA3
:100920001B0519430A4B10B5520D9A4202DA0020FA
:10093000014610BD064B34339A4203DC9A1AFFF786
:100940000FFE10BD034BD21800F02CF810BD0000B4
:10095000FF030000CDFBFFFF10B5002904DB0124DD
:10096000E40740428C412146002B04DB1C46012356
:10097000DB075242A341994200D1904210BD0000D2
:10098000064C0125064E05E0E36807CC2B430C3CE2
:1009900098471034B442F7D3FFF796FB588D000008
:1009A000788D000010B5202A04DB0146203A9140E2
:1009B000002010BD914020239C1A0346E3401943B8
:1009C000904010BD10B5202A06DBCB170846203A10
:1009D0001041C1170B4306E00B461341D0402024C1
:1009E000A21A91400843194610BD10B5C046C04632
:1009F00010BD08B501211F2004F088FC002000F084
:100A0000C9FF042004F08EFC00216846017041708B
:100A1000817004F0B3FA08BD1CB50621684605F0E4
:100A20009DFF01211C2004F071FC002168464170EB
:100A300001706A460721002001F0E4FA0122072133
:100A4000002001F027FB6A460521002001F0DAFAB8
:100A500001220521002001F01DFB1CBD1CB5062153
:100A6000684605F07BFF01211C2004F04FFC0021AB
:100A7000684601706A460221002001F0C3FA012293
:100A80000221002001F006FB0121684601706A4640
:100A90000321002001F0B6FA01220321002001F019
:100AA000F9FA1CBD10B5112004F062FC01210220EE
:100AB00004F09AFA022004F08FFC002004F032FCCB
:100AC000002004F089FC0021022004F08DFA7D2032
:100AD000C00005F053FF10BD08B50121062004F049
:100AE00015FC10216846017000214170C1708170B1
:100AF0006946024804F001FA08BD00000008004001
:100B0000B0B588B004460F461546142103A805F079
:100B100025FF0A21684605F021FF0121082004F085
:100B2000F5FB0221684601730021C1738173417393
:100B300001740121417400218174C17403A9002052
:100B400000F0C2FC01222146002000F097FB2A465B
:100B50000121002000F0AAFB0721684681710021D5
:100B6000C17101210172002141726946002000F02B
:100B7000E7FB3146002000F0B7FB002000F028FB27
:100B800008B0B0BD1FB5062102A805F0E7FE06219A
:100B9000684605F0E3FE01211C2004F0B7FB0021AC
:100BA000684601706A460521C02001F02BFA002139
:100BB0006846017202AA0121002001F023FA0322F3
:100BC0000121002001F066FA1FBD70B586B0044611
:100BD000142101A805F0C2FE0121082004F096FBB3
:100BE00000216846017141720521C17101218172A4
:100BF000002101728171417101A9022000F018FCED
:100C000003208003001B85B22946022000F008FB68
:100C100003208003001B86B23146022000F010FB47
:100C20000021022000F0E0FA022000F0F3FB012294
:100C30000321102000F062FE06B070BD00B587B041
:100C4000102103A805F08AFE0C21684605F086FEF7
:100C50000121084604F05AFB402168460173002137
:100C6000C18141734B21C9010691012149020182D1
:100C700004F002FB059003A90A4804F0CBFC002114
:100C8000084804F09BFC0121064804F097FC002171
:100C9000044804F0A8FC01220321072000F02EFEE6
:100CA00007B000BD0001004010B50446082C73D009
:100CB00004DC002C07D0032C19D16EE00B2C56D08D
:100CC0000C2CF9D114E004F011FD05F031FE902355
:100CD00042A21B211A2001F0FDF83C220121084606
:100CE00002F000F905220121032002F0FBF873E075
:100CF0003C480078002806D0012810D002281AD0DD
:100D000003282ED123E02A236B2228215F2000F024
:100D10005BFE34480078401C3249087025E02A23E5
:100D2000612228215F2000F0C7FE2E480078401C79
:100D30002C49087019E02A2366222821642000F03B
:100D4000BBFE28480078401C264908700DE02A2385
:100D50006B222821692000F0AFFE00202149087095
:100D600003E000201F49087000BF00BF34E00120ED
:100D70001D490870102002F031FE002802D0012821
:100D800008D103E0194800F03BFD03E0184800F0EB
:100D900037FD00BF00BF1FE010E000221146012018
:100DA00002F0A0F805220021032002F09BF80120A8
:100DB0000D4908700F4800F023FD0DE00022114698
:100DC000012002F08FF805220021032002F08AF8AA
:100DD000064800F015FD00BF00BF10BDB5F7C6BD49
:100DE000D6D00000E90000201C000020951800006B
:100DF00085380000A16C000010B53048407800280C
:100E000057D02E48407900281DD02C480078002863
:100E100019D001202949C87000220121104600F094
:100E200073FA2648007925490978884245DB002075
:100E30002249087100221146104600F065FA002090
:100E40001E49487139E01D484079002826D11B48C9
:100E50008078002822D0194800791849897888427A
:100E60002BDB16484078401E1449487008464078ED
:100E7000002809D0002008710120487100220121BA
:100E8000104600F041FA18E000200C49C8700871C3
:100E900000221146104600F037FA0EE000221146FB
:100EA000104600F031FA002004494870C8700871FB
:100EB00003E000200149C870087110BD0400002043
:100EC0000448C078002804D002480079401C014939
:100ED000087170470400002070B504460D461646A0
:100EE0000A2002F07BFD002801D1012000E0002053
:100EF000C007C00F002800D070BD01200449487110
:100F000000200871084644700570867000BFF3E742
:100F1000040000201CB50446230005F02AF80C0745
:100F2000466482AEAEAEAE3DAEAE9FAE05F000FD05
:100F300000F0B4F8524803F0CFFE5249504801F097
:100F400034F84F48006881004D48083042589023DB
:100F50001B210A2000F0BEFF0C2002F03FFD484993
:100F60000968494A515C88420AD1012047490C234B
:100F70001022009101901B215A2000F023FF05E070
:100F800027236A221B215A2000F01EFD0322012183
:100F9000084601F0A7FF70E000221146012001F091
:100FA000A1FF3B4800F02CFC67E0354800F036FC20
:100FB0000C2002F013FD32490968334A515C884223
:100FC0000AD1012031490C231022009101901B21EC
:100FD0005A2000F0F7FE05E027236A221B215A2041
:100FE00000F0F2FC49E0264801F030FB0C2002F052
:100FF000F5FC23490968244A515C88420AD1012042
:1010000022490C231022009101901B215A2000F04C
:10101000D9FE05E027236A221B215A2000F0D4FCC8
:101020002BE017480068002806D0012805D00228C8
:1010300004D003280FD10AE000BF00BF10480068A9
:10104000114A115C00220C2002F0A0FD04E01048BF
:1010500000F0D6FB00E000BF00BF0EE008480068CB
:10106000094A115C01220C2002F090FD012009497F
:101070000870094800F0C4FB00BF00BF1CBD0000A1
:10108000B00300208C000020CA790000FC7600002C
:10109000153400001C0000208538000000200249A3
:1010A0000860032008717047B003002010B50446A3
:1010B000002C06D0082C6DD00B2C56D00C2C77D1E0
:1010C00014E005F035FC90233AA21B211A2000F011
:1010D00001FF04F027FB14220121084601F002FF62
:1010E00005220121032001F0FDFE61E03348007874
:1010F000002806D0012810D002281AD003282ED1AB
:1011000023E02A236B2228215F2000F05DFC2B487E
:101110000078401C2949087025E02A2361222821F3
:101120005F2000F0C9FC25480078401C2349087066
:1011300019E02A2366222821642000F0BDFC1F4804
:101140000078401C1D4908700DE02A236B222821DD
:10115000692000F0B1FC00201849087003E000206D
:101160001649087000BF00BF22E001201449087032
:10117000102002F033FC002802D0012808D103E03F
:10118000104800F03DFB03E00F4800F039FB00BFC2
:1011900000BF0DE000221146012001F0A3FE052250
:1011A0000021032001F09EFE084800F029FB00BF4B
:1011B00000BF10BDD7D4BCECD6D00000E8000020A2
:1011C0001C0000209518000085380000A16C00006C
:1011D00010B5014600200B02024C1A19002353617E
:1011E00010BD0000000C004030B502460020140283
:1011F000034D631901248C40E4435C6130BD000061
:10120000000C004070B5024600201502034EAB19D9
:101210001C692546CD40E807C00F70BD000C00409A
:1012200030B5024600201402044D63191C68240CDA
:1012300024048DB22C431C6030BD0000000C004023
:1012400030B5024600201402044D63195C68240C7A
:1012500024048DB22C435C6030BD0000000C0040C3
:1012600010B5014600200B02034C1A19D3685B0825
:101270005B005B1CD36010BD000C0040F0B5034662
:101280000C4600201D02084EA9190D682D0C2D04D6
:10129000A6B235430D60CD688026B543D6018027C0
:1012A0003E403543CD60F0BD000C004070B50446B3
:1012B0000B46002025020B4EA919002B06D1CD6B41
:1012C0002D0C2D0496B23543CD6309E0012B06D1D8
:1012D0000D6C2D0C2D0496B235430D6400E00120F9
:1012E00070BD0000000C004030B502460020140222
:1012F000044D63195C68240C24048DB22C435C609B
:1013000030BD0000000C0040F0B503460C46002044
:101310001D020A4EA9190D6BB614B5432603012709
:101320003F033E4035430D630D6B7E10B543D6023F
:101330007F103E4035430D63F0BD0000000C0040BF
:1013400070B503460A4600201C022A4D61194C6AFA
:101350001025AC434C62CC69E408E40055786D0775
:101360006D0F2C43CC61CC690825AC439578ED001A
:10137000082635402C43CC614C6A4025AC43D578D7
:10138000AD01402635402C434C62CC6803256D05E9
:10139000AC4315796D050326760535402C43CC60AA
:1013A0004C6A2025AC434C62CC697025AC439579DE
:1013B0002D01702635402C43CC61CC698025AC438F
:1013C000D579ED01802635402C43CC614C6A8025CF
:1013D000AC43157AED0135402C434C624C6A032531
:1013E0002D03AC43557A2D030326360335402C4399
:1013F0004C6270BD000C004010B5014600200B028D
:10140000034C1A19D3685B085B005B1CD36010BDEA
:10141000000C004010B5014600200B02034C1A19C5
:10142000D3682415A3431B19D36010BD000C0040E2
:1014300070B503460A4600201C02224D6119CC6893
:10144000AD00AC4315782D030326360335402C43FD
:10145000CC60CC6801256D02AC4355786D02012645
:10146000760235402C43CC60CC687510AC4395783F
:101470002D02761035402C43CC60CC687025AC43EF
:10148000D5782D01702635402C43CC60CC680825DA
:10149000AC431579ED00082635402C43CC60CC6870
:1014A0000425AC435579AD00042635402C43CC606F
:1014B000CC680225AC4395796D00022635402C435B
:1014C000CC6070BD000C004070B503460A46002099
:1014D0001C02264D6119CC68AD00AC4315782D0374
:1014E0000326360335402C43CC60CC687025AC43D2
:1014F00095782D01702635402C43CC60CC680425AE
:10150000AC43D578AD00042635402C43CC60CC6884
:101510000225AC4315796D00022635402C43CC6082
:10152000CC680825AC435579ED00082635402C439E
:10153000CC60CC68F502AC439579AD03F60235403A
:101540002C43CC60CC68F500AC43D5796D04F60033
:1015500035402C43CC60CC68B502AC435578ED06E1
:10156000B60235402C43CC6070BD0000000C00403A
:1015700010B5C046C04610BD70B502460B46FF25EB
:10158000FF2408E01178521C61400748405C684025
:1015900004460648455C18465E1EB3B20028F1D1E9
:1015A0002802204370BD0000146E0000146F00007C
:1015B0001CB5012002F012FA0446032002F00EFAD4
:1015C000844203D801203449087021E0012002F050
:1015D00005FA0446022002F001FA844203D30220F5
:1015E0002D49087014E0012002F0F8F92B49097E1A
:1015F000002902D0FF21633101E0E1218900884206
:1016000003D203202449087002E004202249087014
:10161000214800782249097888423BD01E4800784A
:101620001F49087008460078012806D002280FD00C
:10163000032818D004282CD120E0012019492023A8
:101640001A460091019014210A2000F0BBFB20E013
:101650000120154920231A460091019014210A20E7
:1016600000F0B0FB15E00120104920231A4600913C
:10167000019014210A2000F0A5FB0AE001200C498A
:1016800020231A460091019014210A2000F09AFBB1
:1016900000BF00BF1CBD00001F000020F4000020A0
:1016A000200000207C740000FC730000FC7200002D
:1016B0007C73000010B50446002C06D0082C6DD0B9
:1016C0000B2C56D00C2C77D114E004F01DF805F04B
:1016D0002FF9902339A21B211A2000F0FBFB0A22CC
:1016E0000121084601F0FEFB05220121032001F043
:1016F000F9FB61E033480078002806D0012810D0BB
:1017000002281AD003282ED123E02A236B22282175
:101710005F2000F059F92B480078401C29490870D7
:1017200025E02A23612228215F2000F0C5F9254801
:101730000078401C2349087019E02A2366222821DA
:10174000642000F0B9F91F480078401C1D4908705A
:101750000DE02A236B222821692000F0ADF900203A
:101760001849087003E000201649087000BF00BF48
:1017700022E0012014490870102002F02FF90028FF
:1017800002D0012808D103E0104800F039F803E046
:101790000F4800F035F800BF00BF0DE00522002122
:1017A000032001F09FFB00221146012001F09AFB6B
:1017B000084800F025F800BF00BF10BDD7D4BCEC2E
:1017C000D6D00000EA0000201C0000209518000080
:1017D00085380000A16C000000B512231A220A21EE
:1017E000084600F0F1F83A231A2232210A2000F0CC
:1017F000EBF82B234A221B210A2000F0E5F800BD5C
:1018000010B504460248046001680020884710BDF6
:10181000F000002010B5C046C04610BD1CB50446FF
:101820002068002830DD2068401E2060FFF7D4FFCC
:101830002068810020460830425890231B210A204E
:1018400000F048FB206800280AD101200F49062338
:1018500010220091019032210A2000F0B3FA13E027
:1018600001200B4906231022009101900A2108460D
:1018700000F0A8FA012005490623102200910190EA
:1018800032210A2000F09EFA1CBD0000D47700002F
:10189000E07700001CB50446002C02D0082C23D1B0
:1018A00011E005F045F80120104920231A46009167
:1018B00001901421322000F085FA012211461046D1
:1018C00001F010FB10E000221146012001F00AFB9C
:1018D00007480078002803D00648FFF791FF02E090
:1018E0000548FFF78DFF00BF00BF1CBDFC75000061
:1018F0001C00002015340000512F000070B5044674
:101900000E46154600BFE106C90E012088400E496B
:10191000086000BF3146204601F078FF012D08D154
:1019200000BFE106C90E012088400849086000BFD9
:1019300009E000BFE106C90E01208840034980315B
:10194000086000BF00BF70BD80E200E000E100E081
:1019500010B5C046C046C046C04610BD70B5024670
:101960001378547818022043054600210CE0222009
:101970004843074E305AA84204D1222048438019D8
:10198000801C70BD481C81B24629F0D30020F8E7C6
:10199000D882000010B501460020084A084BDA62E0
:1019A000084ADA621A46126A0C239A438B000C2406
:1019B00023401A43024B1A6210BD00005A5A00001D
:1019C00000000240A5A50000FFB506460F463446BC
:1019D0000DE03D4605E0E9B2E0B200F00DF8681C0C
:1019E00085B20398401C8542F5DB601C84B20298E6
:1019F000401C8442EDDBFFBD70B50346402901DD8C
:101A0000012000E000207F2B01DD012200E0002208
:101A10001043002800D070BD0846CC17640F24186E
:101A2000E410E4010B4D6419E45C0A46CD176D0F18
:101A3000AD18ED10ED004E1B0125B540AC43CD17A0
:101A40006D0F2D18ED10ED01024EAD19EC5400BFD5
:101A5000E1E700009005002070B50346402901DD54
:101A6000012000E000207F2B01DD012200E00022A8
:101A70001043002800D070BD0846CC17640F24180E
:101A8000E410E4010B4D6419E45C0A46CD176D0FB8
:101A9000AD18ED10ED004E1B0125B5402C43CD17C0
:101AA0006D0F2D18ED10ED01024EAD19EC5400BF75
:101AB000E1E7000090050020FFB506460F463446DA
:101AC0000DE03D4605E0E9B2E0B2FFF7C5FF681C56
:101AD00085B20398401C8542F5DB601C84B20298F5
:101AE000401C8442EDDBFFBDFFB587B00A98860637
:101AF000B60E09982E38C0B2099009985E2801DD0B
:101B00000BB0F0BD062E04D10120059005200490F5
:101B100022E00C2E04D102200590082004901BE046
:101B2000102E09D102200590082004900998000188
:101B30005449401806900FE0202E09D1042005904A
:101B400010200490099880014F494018069003E046
:101B5000022005900820049040210A98084000289F
:101B600004D04A4802904A48019003E04748019057
:101B7000474802900820039080210A9808400028D6
:101B80003FD0002539E0002729E000241FE0069817
:101B900000780121A140084000280BD0EA000898F5
:101BA00010180019C1B20798C019C3B21846029A9A
:101BB00090470AE0EA00089810180019C1B2079887
:101BC000C019C3B21846019A9047601CC4B203986A
:101BD0008442DCDB0698401C0690781CC7B204984F
:101BE0008742D2DB30460838C6B2082E02DB082016
:101BF000039000E00396681CC5B205988542C2DBDD
:101C00003EE0002539E0002729E000241FE0069887
:101C100000780121A140084000280BD0EA00089874
:101C200010180019C1B20798C019C3B21846029A19
:101C300090470AE0EA00089810180019C1B2079806
:101C4000C019C3B21846019A9047601CC4B20398E9
:101C50008442DCDB0698401C0690781CC7B20498CE
:101C60008742D2DB30460838C6B2082E02DB082095
:101C7000039000E00396681CC5B205988542C2DB5C
:101C800000BF3DE7D87C0000D8790000F9190000BA
:101C9000591A0000FFB583B007461646069880061D
:101CA000800E0290402106980840002804D0434846
:101CB00001904348009003E0404800904048019064
:101CC000802106980840002832D000252CE000240E
:101CD0000EE03078802121410840002806D0049A87
:101CE0005219D1B23A19D0B2019A9047601CC4B2CD
:101CF000082CEEDB761C00240FE030788021214197
:101D00000840002807D0049A5219D1B23A19083273
:101D1000D0B2019A9047601CC4B202980838A04221
:101D2000EBDC761C681CC5B202988542CFDB42E032
:101D300000253DE0002416E0307880212141084054
:101D4000002807D0049A5219D1B23A19D0B2019A98
:101D5000904706E0049A5219D1B23A19D0B2009ACB
:101D60009047601CC4B2082CE6DB761C002418E007
:101D70003078802121410840002808D0049A521967
:101D8000D1B23A190832D0B2019A904707E0049ACA
:101D90005219D1B23A190832D0B2009A9047601C59
:101DA000C4B202980838A042E2DC761C681CC5B2B6
:101DB00002988542BEDB07B0F0BD0000F9190000B3
:101DC000591A0000FFB587B006460F461446204654
:101DD000E117490F09184903090C0291E117490F4E
:101DE0000918C910C900611A89B2019110980490AC
:101DF000119800280DD0354803900A983818401ED5
:101E000083B23019401E82B239463046FFF754FE85
:101E10000CE02F4803900A983818401E83B23019FE
:101E2000401E82B239463046FFF7CEFD00200690B4
:101E300046E0002005901DE0002512E0049800789F
:101E4000802129410840002809D0069ABA18D1B249
:101E5000059AD20092195219D0B2039A9047681C81
:101E600085B2082DEADB0498401C04900598401CBC
:101E700080B20590029905988842DDDB002512E0CA
:101E800004980078802129410840002809D0069A4A
:101E9000BA18D1B2029AD20092195219D0B2039A4A
:101EA0009047681C85B201988542E9DB01980028BB
:101EB00002DD0498401C04900698401C80B20690F5
:101EC0000A9906988842B4DB0BB0F0BDF9190000FE
:101ED000591A0000FFB583B005460F46164606980E
:101EE0008006800E0290029810280ED004DC06288E
:101EF00007D00C280FD106E0182808D020280AD1D6
:101F000007E00E2409E0102407E0102405E018245F
:101F100003E0202401E0102400BF00BF3AE0307845
:101F2000802815DD3046FFF719FD0190F9B2E8B2BF
:101F30000090069B019AFFF7ADFEB61C702D04DDE4
:101F400000250298381887B224E0281985B221E0CC
:101F50003278F9B2E8B20090069BFFF7C5FD761C17
:101F6000782D04DD00250298381887B212E030463B
:101F70002038C07F2E2802D1281D85B205E02046DA
:101F8000E10F0918491049198DB20698A02801D10E
:101F9000681C85B230780028C1D107B0F0BD024678
:101FA0001068C840C007C00F704730B50246002017
:101FB00000BF07E08300CC588500134608335C510E
:101FC000431CD8B213795B1C8342F3DC30BD0000A4
:101FD00070B504460D46044960180122294602F0F6
:101FE00025FE002070BD0000140D024070B50446AF
:101FF0000D46034960182946FFF7D1FF70BD000068
:10200000040D024070B504460E4615461E49601880
:102010000022314602F00AFE00201C496118B2007D
:1020200088502A7818490C396018314602F0FEFDB4
:102030006A78154910316018314602F0F7FDAA7828
:10204000114914316018314602F0F0FDEA780E496A
:1020500018316018314602F0E9FD2A790A49203129
:102060006018314602F0E2FD094880680121C90389
:1020700088436979C9030122D20311400843044906
:102080008860002070BD00000C0D0240000C024072
:10209000000F024010B50346024818188C00025188
:1020A000002010BD000C024070B504460D460449E6
:1020B00060180122294602F0B9FD002070BD000021
:1020C000100D024070B504460D46164603496018CF
:1020D0003246294602F0AAFD002070BD080D0240DC
:1020E00008B50020009000BF00980028FCD008BD73
:1020F000FEB50446230003F03CFF0A06CACAFED41C
:10210000E9FDFCCBFBCA04F013FC012001F066FCE6
:102110000546FEF744F9029099490298FEF78DF8BA
:10212000029098490298FEF7D7F914D80E2001F0D2
:1021300055FC002801D094A000E094A00746029826
:10214000FEF7A2F905462A460B4691A19248009750
:1021500003F0E4FE18E00E2001F040FC002801D05E
:1021600089A000E089A005460298FEF741F90646DD
:102170002B46324689A1884803F0D0FE39236522D8
:1021800019216220FFF720FC9023834A0821502068
:10219000FFF7A0FE042001F021FC00280ED0002053
:1021A000804918231A46009101901E210A20FFF74A
:1021B00009FE1E210A2004F06BFB09E00120794989
:1021C00018231A46009101901E210A20FFF7FAFDFC
:1021D000052001F003FC00280ED0002072491823CE
:1021E0001A46009101901E212820FFF7EBFD1E21C9
:1021F000282004F04DFB09E001206B4918231A4602
:10220000009101901E212820FFF7DCFD062001F03F
:10221000E5FB00280ED00020644918231A460091DF
:1022200001901E214620FFF7CDFD1E21462004F01F
:102230002FFB09E001205D4918231A460091019007
:102240001E214620FFF7BEFD072001F0C7FB002836
:102250000ED00020564918231A46009101901E21E5
:102260006420FFF7AFFD1E21642004F011FB09E09C
:1022700001204F4918231A46009101901E21642025
:10228000FFF7A0FD03220121084600F02BFE75E0B8
:1022900000221146012000F025FE4648FFF7B0FA63
:1022A0006CE000203F4918231A46009101901E213E
:1022B0000A20FFF787FD1E210A2004F0E9FA012019
:1022C0003D4908703D48FFF79BFA57E0002036492A
:1022D00018231A46009101901E212820FFF772FD55
:1022E0001E21282004F0D4FA02203349087003E0AC
:1022F00039E01AE004E02DE03048FFF781FA3DE0D4
:1023000000202A4918231A46009101901E214620D8
:10231000FFF758FD1E21462004F0BAFA0320264993
:1023200008702648FFF76CFA28E00020204918239F
:102330001A46009101901E216420FFF743FD1E21E3
:10234000642004F0A5FA04201B4908701B48FFF71D
:1023500057FA13E000221146012000F0C3FD154892
:10236000FFF74EFA0AE001F08FF900221146022031
:1023700000F0B8FD1248FFF743FA00BF00BFFEBDF2
:10238000000020410000C642696E0000636D00003D
:10239000252E316625730000F00200202564257388
:1023A00000000000EC770000347800007C7800002A
:1023B000C4780000512F000021000020C523000038
:1023C000153400007CB50446002C06D0082C76D0CD
:1023D0000B2C75D00C2C0DD10DE000208D49087010
:1023E00003220121084600F07DFD03220121104651
:1023F00000F078FD0CE188480078002801D1012028
:1024000000E000208449087082480078401C81491F
:10241000087082480078012806D002282FD00328AF
:102420005AD0042878D183E07A480078032808DB62
:10243000012001F0D3FA054600222946042001F0CC
:10244000A5FB7548007800280ED000207449182399
:102450001A46009101901E210A20FFF7B3FC1E21AD
:102460000A2004F015FA09E001206D4918231A46E4
:10247000009101901E210A20FFF7A4FC84E065482A
:102480000078032808DB012001F0A8FA05460022A5
:102490002946052001F07AFB5F480078002810D01B
:1024A0000020604918231A46009101901E2128201F
:1024B000FFF788FC1E21282004F0EAF90BE065E014
:1024C0006BE00120574918231A46009101901E2104
:1024D0002820FFF777FC57E04E480078032808DBF8
:1024E000012001F07BFA054600222946062001F072
:1024F0004DFB4948007800280FD000204A49182396
:102500001A46009101901E214620FFF75BFC1E2118
:10251000462004F0BDF90AE035E0012042491823C5
:102520001A46009101901E214620FFF74BFC2BE03C
:1025300038480078032808D1012001F04FFA0546F9
:1025400000222946072001F021FB334800780028AB
:102550000ED00020354918231A46009101901E2103
:102560006420FFF72FFC1E21642004F091F909E09C
:1025700001202E4918231A46009101901E21642043
:10258000FFF720FC00E000BF00BF41E00020284929
:1025900008702848FFF734F93AE02048007801280D
:1025A00006D002280ED0032816D0042828D11DE01A
:1025B000012001F013FA054601222946042001F00A
:1025C000E5FA1DE0012001F009FA0546012229463D
:1025D000052001F0DBFA13E0012001F0FFF90546C8
:1025E00001222946062001F0D1FA09E0012001F07C
:1025F000F5F9054601222946072001F0C7FA00BF78
:1026000000BF00200A4908700B48FFF7F9F800BF27
:1026100000BF7CBD2D0000202C00002021000020E8
:10262000EC770000347800007C780000C47800006B
:102630001C000020951800008538000010B5C04629
:10264000C04610BD10B5C046C04610BD1CB50446FE
:1026500021792068884231DA2068401C2060FFF729
:10266000BBF82068810020460830425890231B2187
:102670000A20FFF72FFC2179206888420AD1012027
:102680000F4906231022009101900A210846FFF706
:1026900099FB13E001200A490623102200910190C2
:1026A0000A210846FFF78EFB012006490623102267
:1026B0000091019032210A20FFF784FB1CBD00002D
:1026C000E0770000D477000004484079002804D067
:1026D00002484088401C0149488070471201002090
:1026E00010B501F04DFC31480079002802D00128D6
:1026F0002BD112E02D488079002808D02B48807912
:102700002A498872012008710020488004E00020D6
:10271000264908714880487117E024488079234988
:10272000897A884211D101202049487108464088A1
:1027300008280ADD0846C079002806D0082048800D
:10274000002008700846807A487000BF174840781B
:1027500000281DD015484078144948720020487060
:102760000846407A032803D1092000F0E3FA1CE070
:102770000E48407A012803D10D2000F0DBFA14E066
:102780000A48407A022810D10E2000F0D3FA0CE05B
:102790000648007805494872002008700846407ACB
:1027A000002802D0487A00F0C5FA10BD12010020BE
:1027B0001CB50446230003F0DCFB0C07466482AB27
:1027C000ABABAB3DABAB9CAB04F0B2F800F0B0F8F8
:1027D000504802F081FA50494E48FFF7E6FB4D4859
:1027E000006881004B480830425890231B210A2082
:1027F000FFF770FB0D2001F0F1F846490968474AE0
:10280000515C88420AD1012045490C2310220091D5
:1028100001901B215A20FFF7D5FA05E027236A22F1
:102820001B215A20FFF7D0F803220121084600F0AF
:1028300059FB6DE000221146012000F053FB39489E
:10284000FEF7DEFF64E03348FEF7E8FF0D2001F0FD
:10285000C5F830490968314A515C88420AD10120E3
:102860002F490C231022009101901B215A20FFF7C1
:10287000A9FA05E027236A221B215A20FFF7A4F8B2
:1028800046E02448FFF7E2FE0D2001F0A7F82149B9
:102890000968224A515C88420AD1012020490C2350
:1028A0001022009101901B215A20FFF78BFA05E0BE
:1028B00027236A221B215A20FFF786F828E01548B3
:1028C0000068002804D0012803D002280ED109E0B6
:1028D00000BF10480068114A115C00220D2001F071
:1028E00055F904E00F48FEF78BFF00E000BF00BF82
:1028F0000EE008480068094A115C01220D2001F031
:1029000045F90120084908700848FEF779FF00BF23
:1029100000BF1CBD28040020A8000020D1790000C1
:10292000FC760000153400001C00002085380000F3
:102930000020024908600220087170472804002026
:1029400010B500F02BFA012204210020FFF7BAFB9A
:10295000642004F013F8002204211046FFF7B2FBB4
:10296000642004F00BF8012204210020FFF7AAFBE9
:102970000021EC4802F0D5FA002206211046FFF7AC
:10298000A1FB00BF0421E74802F0AEFA0028F9D00D
:10299000AE21E44802F0C1FA002206211046FFF7FA
:1029A00091FB00BF0421DF4802F09EFA0028F9D015
:1029B0000021DC4802F0B1FA002206211046FFF7A0
:1029C00081FB00BF0421D74802F08EFA0028F9D01D
:1029D0001021D44802F0A1FA002206211046FFF788
:1029E00071FB00BF0421CF4802F07EFA0028F9D025
:1029F0004021CC4802F091FA002206211046FFF750
:102A000061FB00BF0421C74802F06EFA0028F9D02C
:102A10008121C44802F081FA002206211046FFF706
:102A200051FB00BF0421BF4802F05EFA0028F9D034
:102A3000CF21BC4802F071FA002206211046FFF7B0
:102A400041FB00BF0421B74802F04EFA0028F9D03C
:102A5000A121B44802F061FA002206211046FFF7D6
:102A600031FB00BF0421AF4802F03EFA0028F9D044
:102A7000C821AC4802F051FA002206211046FFF7A7
:102A800021FB00BF0421A74802F02EFA0028F9D04C
:102A9000A621A44802F041FA002206211046FFF7C1
:102AA00011FB00BF04219F4802F01EFA0028F9D054
:102AB000A8219C4802F031FA002206211046FFF7B7
:102AC00001FB00BF0421974802F00EFA0028F9D05C
:102AD0003F21944802F021FA002206211046FFF718
:102AE000F1FA00BF04218F4802F0FEF90028F9D066
:102AF000D3218C4802F011FA002206211046FFF77C
:102B0000E1FA00BF0421874802F0EEF90028F9D06D
:102B10000021844802F001FA002206211046FFF746
:102B2000D1FA00BF04217F4802F0DEF90028F9D075
:102B3000D5217C4802F0F1F9002206211046FFF76A
:102B4000C1FA00BF0421774802F0CEF90028F9D07D
:102B50008021744802F0E1F9002206211046FFF7B7
:102B6000B1FA00BF04216F4802F0BEF90028F9D085
:102B7000D9216C4802F0D1F9002206211046FFF756
:102B8000A1FA00BF0421674802F0AEF90028F9D08D
:102B9000F121644802F0C1F9002206211046FFF736
:102BA00091FA00BF04215F4802F09EF90028F9D095
:102BB000DA215C4802F0B1F9002206211046FFF745
:102BC00081FA00BF0421574802F08EF90028F9D09D
:102BD0001221544802F0A1F9002206211046FFF705
:102BE00071FA00BF04214F4802F07EF90028F9D0A5
:102BF000DB214C4802F091F9002206211046FFF734
:102C000061FA00BF0421474802F06EF90028F9D0AC
:102C10004021444802F081F9002206211046FFF7C6
:102C200051FA00BF04213F4802F05EF90028F9D0B4
:102C300020213C4802F071F9002206211046FFF7DE
:102C400041FA00BF0421374802F04EF90028F9D0BC
:102C50000221344802F061F9002206211046FFF7F4
:102C600031FA00BF04212F4802F03EF90028F9D0C4
:102C70008D212C4802F051F9002206211046FFF761
:102C800021FA00BF0421274802F02EF90028F9D0CC
:102C90001421244802F041F9002206211046FFF7D2
:102CA00011FA00BF04211F4802F01EF90028F9D0D4
:102CB000A4211C4802F031F9002206211046FFF73A
:102CC00001FA00BF0421174802F00EF90028F9D0DC
:102CD000A621144802F021F9002206211046FFF730
:102CE000F1F900BF04210F4802F0FEF80028F9D0E6
:102CF000AF210C4802F011F9002206211046FFF71F
:102D0000E1F900BF0421074802F0EEF80028F9D0ED
:102D1000AF21044802F001F903F00AFE012003F09C
:102D200033FF10BD0008004010B5FDF775FEFDF73C
:102D3000D3FE10BD10B50446230003F01AF90F09A5
:102D40000A0B0C0D0E0F101F111E121D2120280042
:102D500000BF00BF00BF00BF00BF00BF00BF00BF7B
:102D600000BF00200B49488008800B4801682046BE
:102D7000884703F06DFE0BE000BF00BF00BF00BF3F
:102D8000054801682046884703F062FE00E000BF66
:102D900000BF10BD90090020F00000201CB50121EB
:102DA0001C2002F0B3FA0021684601708170C170E6
:102DB00006210020FFF70CF96A4606210020FFF7E4
:102DC00021F904210020FFF703F96A4604210020BD
:102DD000FFF718F9FFF7A8FF1CBD10B5C046C046A5
:102DE00010BD00000D488079002804D00B484088B1
:102DF000401C0A4948800948C079002804D0074887
:102E00000088401C054908800448807A002804D0C6
:102E100002488089401C0149888170479009002040
:102E200010B5C046C04610BD10B5C046C04610BD66
:102E300010B5C046C04610BD10B5C046C04610BD56
:102E40000146012904D0022919D0032944D12DE0DB
:102E500023488079002800D1704721484088204AC3
:102E60009288904209DB1E488079012805D1002014
:102E70001B4A508090710120EEE70020ECE71848D3
:102E8000C079002800D1E7E715480088144A128964
:102E9000904209DB1248C079012805D10020104A70
:102EA0001080D0710120D7E70020D5E70C48807A48
:102EB000002800D1D0E70A488089094AD289904287
:102EC00008DB0748807A012804D10020044A908159
:102ED0000120C1E70020BFE70020C043BCE700009D
:102EE0009009002010B5012804D0022812D0032830
:102EF00029D121E0002903D00123144CA37102E061
:102F00000023124CA37114235343104CA3800023BD
:102F1000638019E0002905D000230C4C2380012395
:102F2000E37102E00023094CE37128235343074C6B
:102F300023810023238007E00023044CA381234640
:102F40009972DA8100E000BF00BF10BD9009002037
:102F5000FEB50446230003F00CF80F09FDFCFBFA54
:102F6000F9F8F7DBF6F5DBDCF4F3DB0002F0F6FB57
:102F700003F0DEFC012000F031FD0546FDF70FFAFD
:102F80000290B0490298FDF758F90290AE490298B4
:102F9000FDF7A2FA14D80E2000F020FD002801D081
:102FA000AAA000E0AAA007460298FDF76DFA054620
:102FB0002A460B46A7A1A948009702F0AFFF18E0E8
:102FC0000E2000F00BFD002801D0A0A000E0A0A082
:102FD00005460298FDF70CFA06462B463246A0A19C
:102FE0009E4802F09BFF3923652219216020FEF7DD
:102FF000EBFC9023994A08214E20FEF76BFF01203D
:1030000099490E234022009101900A210846FEF7BB
:10301000D9FE082000F0E2FC002809D000209349E6
:1030200018231A46009101901E210A20FEF7CAFEBD
:103030008F48807B00280ED08D48C07B00280AD1A5
:1030400001208C4918231A46009101901E21282046
:10305000FEF7B8FE24E08648807B00280ED1844825
:10306000C07B00280AD00120834918231A4600910A
:1030700001901E212820FEF7A5FE11E07C48807BF0
:1030800000280DD07A48C07B002809D000207B4959
:1030900018231A46009101901E212820FEF792FE67
:1030A0000D2000F09BFC002809D000207449182353
:1030B0001A46009101901E214620FEF783FE0B2048
:1030C00000F08CFC00280AD001206E4918231A4613
:1030D000009101901E216420FEF774FE0EE00C208A
:1030E00000F07CFC002809D00120674918231A460B
:1030F000009101901E216420FEF764FE0A22012146
:103100000220FFF7EFFE082201210320FFF7EAFE6D
:1031100096E002F023FB012000F060FC0546FDF77D
:103120003EF9029047490298FDF787F80290464918
:103130000298FDF7D1F920D80E2000F04FFC0AE0EC
:103140003DE03DE073E05EE04BE049E047E045E014
:1031500064E033E031E0002801D03CA000E03CA076
:1031600007460298FDF790F905462A460B4639A115
:103170003A48009702F0D2FE18E00E2000F02EFC34
:10318000002801D031A000E031A005460298FDF7EB
:103190002FF906462B46324631A1304802F0BEFEDA
:1031A0003923652219216020FEF70EFC90232B4A5B
:1031B00008214E20FEF78EFE42E000BF00BF00BF98
:1031C0000A2200210320FFF78DFE00221146022073
:1031D000FFF788FE2D48FEF713FB31E000BF00BF6C
:1031E00000BFE01E2A490870E0B200F0F7FB00289B
:1031F00000D125E0002211460220FFF773FE25488A
:10320000FEF7FEFA1CE000F03FFA00221146022011
:10321000FFF768FE2048FEF7F3FA11E0002211469E
:103220000220FFF75FFE1D48FEF7EAFA08E00022E1
:1032300011460220FFF756FE1948FEF7E1FA00BFDB
:1032400000BFFEBD000020410000C642696E0000C4
:10325000636D0000252E316625730000F00200200A
:103260002564257300000000DC7000006C72000013
:10327000F4000020747900002C7900002472000012
:10328000DC7100004C71000094710000694700007F
:103290001D000020794A000015340000F1200000D4
:1032A000294F000070B50446230002F062FE0C07AF
:1032B0002C3034979797972397976E9703F038FBA6
:1032C00000F0A0F8464801F007FD46494448FEF7E3
:1032D0006CFE434800688100414808304258902302
:1032E0001B210A20FEF7F6FD032201210846FFF705
:1032F000F9FD73E0002211460120FFF7F3FD3A4883
:10330000FEF77EFA6AE03648FEF788FA66E034484F
:10331000FFF79CF962E032480068002804D00128D9
:1033200019D002282ED129E0012000F057FB0546D4
:10333000032000F053FB854203D22C48FEF760FACD
:1033400008E0012000F04AFB054600222946022041
:1033500000F01CFC17E02648007E002802D0002068
:10336000244901E0002024490246FDF76FF8054694
:1033700000222946022000F009FC04E01A48FEF76A
:103380003FFA00E000BF00BF28E001201B490870A1
:1033900013480068002809D1012000F01FFB0546F2
:1033A00001222946022000F0F1FB13E01048007EC4
:1033B000002802D000210F4801E000210E480A46F3
:1033C00001461046FDF742F8054601222946022033
:1033D00000F0DCFB0A48FEF713FA00BF00BF70BD27
:1033E00064040020B400002015340000951800008B
:1033F000F400002000DCB14000209C401C000020B4
:1034000085380000002002490860022008717047DA
:10341000640400201CB50446230002F0AAFD0F0935
:10342000406DC0ABACADAE37363636369D9C3600FF
:1034300003F07EFA7F4801F04FFC7F497D48FEF79C
:10344000B4FD7C48006881007A48083042589023D7
:103450001B210A20FEF73EFD012078490623102299
:10346000009101900A210846FEF7ACFC0120744946
:10347000062310220091019032210A20FEF7A2FCBF
:10348000032201210846FFF72DFDD0E0002211465E
:103490000120FFF727FD6B48FEF7B2F9C7E0FEF702
:1034A0009BF90120654906231022009101900A2111
:1034B0000846FEF787FC012061490623102200918F
:1034C000019032210A20FEF77DFC5A480068401E18
:1034D0005849086008460068002801DA0D20086095
:1034E00054480068810053480830425890231B21FB
:1034F0000A20FEF7EFFC9AE0FEF76EF901204F4933
:1035000006231022009101900A210846FEF75AFC7A
:1035100001204B49062310220091019032210A20FC
:10352000FEF750FC43480068401C424908600846CA
:1035300000680979884202DD00203E4908603D4864
:10354000006881003B480830425890231B210A2024
:10355000FEF7C0FC6BE000BF0A2200210320FFF74A
:10356000C1FC002211460220FFF7BCFC3648FEF7E2
:1035700047F95CE000BF00BF00BFE01E33490870A0
:10358000E0B200F02BFA002800D150E000221146F2
:103590000220FFF7A7FC2E48FEF732F947E0254846
:1035A0000068030002F0E5FC0E080C1014181C2043
:1035B00024282C3034383C402648FEF721F934E0EA
:1035C0002548FEF71DF930E02448FEF719F92CE0F4
:1035D0002348FEF715F928E02248FEF711F924E008
:1035E0002148FEF70DF920E02048FEF709F91CE01C
:1035F0001F48FEF705F918E01E48FEF701F914E030
:103600001D48FEF7FDF810E01C48FEF7F9F80CE045
:103610001B48FEF7F5F808E01A48FEF7F1F804E059
:103620000848FEF7EDF800E000BF00BF00BF00BF94
:103630001CBD0000FC02002030000020E0770000EC
:10364000D4770000512F0000694700001D000020C2
:10365000794A0000594D0000F9400000AD1000000B
:10366000755D0000150F0000B1270000A90C0000D7
:10367000B5160000A532000099360000255B000059
:103680008D440000C55C00000020024908600D2048
:1036900008717047FC02002070B50446230002F058
:1036A00068FC0C072C303498989898239898719857
:1036B00003F03EF900F0A2F8474801F00DFB47493E
:1036C0004548FEF772FC44480068810042480830D3
:1036D000425890231B210A20FEF7FCFB0322012104
:1036E0000846FFF7FFFB74E0002211460120FFF7B8
:1036F000F9FB3B48FEF784F86BE03748FEF78EF89D
:1037000067E03548FEF7A2FF63E033480068002811
:1037100004D0012819D0022831D12CE0012000F07A
:103720005DF90546022000F059F9854203D92D487C
:10373000FEF766F808E0012000F050F90546002287
:103740002946032000F022FA1AE02748007E0028CC
:1037500002D00020254901E0002025490246FCF75F
:1037600075FE054600222946032000F00FFA0020CE
:103770001D49C87304E01A48FEF742F800E000BF94
:1037800000BF26E001201B4908701348006800288C
:1037900009D1012000F022F9054601222946032023
:1037A00000F0F4F911E01048007E002802D000205B
:1037B0000E4901E000200E490246FCF747FE05468F
:1037C00001222946032000F0E1F90B48FEF718F822
:1037D00000BF00BF70BD0000A0040020C00000209A
:1037E0001534000095180000F400002000C07F4050
:1037F000000069401C0000208538000000200249BC
:103800000860022008717047A004002010B500284D
:1038100019DA1A4A03071B0F083B9B089B00D25872
:103820008307DC0EFF23A3409A438B071B0E8407FC
:10383000E40EA3401A43114B0407240F083CA408CC
:10384000A4001A5118E00E4A03231B02D218830861
:103850009B00D2588307DC0EFF23A3409A438B07BB
:103860001B0E8407E40EA3401A43054B03242402D5
:103870001B198408A4001A5110BD00001CED00E0C3
:1038800000E100E01CB50446002C02D0082C23D136
:1038900011E003F04DF80120104920231A46009151
:1038A000019014213220FEF78DFA012211461046B4
:1038B000FFF718FB10E0002211460120FFF712FB72
:1038C00007480078002803D00648FDF799FF02E07A
:1038D0000548FDF795FF00BF00BF1CBD7C750000CB
:1038E0001C00002015340000512F00001CB50446B8
:1038F000002C04D0082C0DD00C2C4AD120E0012241
:1039000011460320FFF7EEFA042201210846FFF7D3
:10391000E9FA3EE0002211460120FFF7E3FA012216
:1039200000210320FFF7DEFA1B48007FBB2803D1EC
:103930001A48FDF765FF02E01948FDF761FF28E02E
:103940001848007819281EDD16480078401E1549D1
:103950000870084600783C2801D101F015FF114895
:1039600000781E2801DC01F0F9FE02F0E1FF0120E1
:103970000D4910235822009101900A480178162021
:10398000FEF720FA04E0012200210320FFF7AAFA43
:1039900000BF00BF1CBD0000F400002091420000E9
:1039A000512F00001E0000202C70000010B5C046F2
:1039B000C04610BD10B5C046C04610BD10B5C046CB
:1039C000C04610BD10B5C046C04610BD10B5C046BB
:1039D000C04610BD10B5C046C04610BD7CB50446FB
:1039E000230002F0C6FA13CA0B223950677E95AC49
:1039F000CAAFB2B5B8BBBEC1C4C7CA006048007E7A
:103A000000280AD05E490888FCF7E4FC5D4A5E4B5A
:103A100001910090FCF750FC03E059490888FCF73D
:103A2000D9FC0546FCF712FD7CBD5548007E0028F8
:103A30000AD053494888FCF7CDFC524A524B0191B9
:103A40000090FCF739FC03E04D494888FCF7C2FCC4
:103A50000546FCF7FBFCE7E74948007E00280AD052
:103A600047498888FCF7B6FC464A474B01910090CD
:103A7000FCF722FC03E042498888FCF7ABFC0546D2
:103A8000FCF7E4FCD0E73E48007E00280AD03C4921
:103A9000C888FCF79FFC3B4A3B4B01910090FCF728
:103AA0000BFC03E03649C888FCF794FC0546FCF79C
:103AB000CDFCB9E73248007E00280AD03049088999
:103AC000FCF788FC2F4A304B01910090FCF7F4FB87
:103AD00003E02B490889FCF77DFC0546FCF7B6FCA2
:103AE000A2E72748007E00280AD025494889FCF72C
:103AF00071FC244A244B01910090FCF7DDFB03E0AC
:103B00001F494889FCF766FC0546FCF79FFC8BE7DC
:103B10001B48007E00280AD019498889FCF75AFC06
:103B2000184A194B01910090FCF7C6FB03E01449B9
:103B30008889FCF74FFC0546FCF788FC74E71048C1
:103B4000008A71E70E48007D6EE70D48807D6BE7C7
:103B50000B48407D68E70A48C07D65E70848007E5D
:103B600062E70748807E5FE70548C07E5CE704485F
:103B7000407E59E70248407F56E7002054E70000A6
:103B8000F40000209EEFA7C64B37D93F70B588B030
:103B900006460C461546F0A207CA05AB07C3F14816
:103BA000017C68464175EF48017D68468175ED48A6
:103BB000417D6846C175EB48C17D68460176E9489C
:103BC000017E68464176E748408801126846817662
:103BD000E44881786846C176E248808801126846E8
:103BE0000177E048017968464177DF480068049032
:103BF000330002F0BEF9100B090C5398C3F7F5F42B
:103C00000BF3F2F1F0EFEE0BD6490C80A1E1D548B1
:103C1000007E002802D00020D44909E0E121C9003B
:103C20008C4201D1012100E000210846FCF7BEFBD7
:103C30000022134603910290FCF73AFC03D00020C7
:103C4000C849887302E00120C6498873C548007ED0
:103C5000002809D02046FCF7BDFBC54AC54B0191A1
:103C60000090FCF729FB02E02046FCF7B3FB039130
:103C70000290FCF7EBFB0446002D02D0B9494C80C2
:103C80000BE05221BC48C1772004010E68468176C2
:103C9000C4760B2105A802F0DBFF5AE1B148007E93
:103CA000002802D00020B54907E0C82C01D101212D
:103CB00000E000210846FCF779FB0022134603913F
:103CC0000290FCF7F5FB03D00020A649C87302E080
:103CD0000120A449C873A348007E002809D02046CB
:103CE000FCF778FBA24AA34B01910090FCF7E4FAA1
:103CF00002E02046FCF76EFB03910290FCF7A6FB66
:103D00000446002D02D097498C800BE052219A483E
:103D1000C1772004010E6846017744770B2105A87E
:103D200002F096FF15E159219348C1778D48007E36
:103D3000002809D02046FCF74DFB8D4A8D4B0191A0
:103D40000090FCF7B9FA02E02046FCF743FB039130
:103D50000290FCF77BFB0446002D02D08149CC8009
:103D60000BE00121684641742004010E684681740D
:103D7000C474042104A802F06BFFEAE059217E48D4
:103D8000C1777848007E002809D02046FCF722FB46
:103D9000774A784B01910090FCF78EFA02E02046BA
:103DA000FCF718FB03910290FCF750FB0446002D32
:103DB00002D06C4804810BE0022168464174200463
:103DC000010E68468174C474042104A802F040FF07
:103DD000BFE0BBE0ABE09BE08BE077E067E057E063
:103DE0002BE0FFE759216448C1775E48007E002838
:103DF00009D02046FCF7EEFA5D4A5E4B0191009037
:103E0000FCF75AFA02E02046FCF7E4FA039102902C
:103E1000FCF71CFB0446002D02D0524844810BE005
:103E20000321684641742004010E68468174C474FD
:103E3000042104A802F00CFF8BE059214E48C17701
:103E40004848007E002809D02046FCF7C3FA484ABB
:103E5000484B01910090FCF72FFA02E02046FCF756
:103E6000B9FA03910290FCF7F1FA0446002D02D052
:103E70003C4884810BE00421684641742004010E13
:103E800068468174C474042104A802F0E1FE60E075
:103E9000002D02D033490C8208E052213648C17708
:103EA00069464C750A2105A802F0D2FE51E0002DAA
:103EB00002D02C490C7508E052212F48C177694681
:103EC0008C750A2105A802F0C3FE42E0002D02D045
:103ED000244884750CE052212748C1776846C07D8C
:103EE0002043C1B26846C1750A2105A802F0B0FEA0
:103EF0002FE0002D02D01B48447508E052211E48D7
:103F0000C1776946CC750A2105A802F0A1FE20E020
:103F1000002D02D01348C47508E052211648C1771D
:103F200069460C760A2105A802F092FE11E0002DE8
:103F300002D00C48047608E052210F48C177694648
:103F40004C760A2105A802F083FE02E005498C7632
:103F500000BF00BF08B070BD5200000000000000AC
:103F600000000000F4000020F06D000000DCB14013
:103F700052B81E85EB5104403E01002000C07F4036
:103F800010B50020304988710C21FEF72FF8002869
:103F900003D101202C49887154E000214020FEF714
:103FA00025F8002803D10220274988714AE0012121
:103FB0004020FEF71BF8002803D103202249887116
:103FC00040E002214020FEF711F8002803D1042030
:103FD0001D49887136E009210020FEF707F8002806
:103FE00003D10520184988712CE00A210020FDF733
:103FF000FDFF002803D106201349887122E00B2120
:104000000020FDF7F3FF002803D107200E49887137
:1040100018E00D48408801280BDD0B484088062831
:1040200007DA0020084948800846807A0870002096
:1040300008720020044948714870488008710120C6
:104040000872C87110BD0000120100207CB5044642
:10405000230001F08EFF0C072D2E2C28292A2B3E41
:104060003E3E313E02F064FC002211460120FEF784
:1040700039FF0120184920231A46009101900F2191
:104080001E20FDF79FFE1120FFF7A8FC05462A46DB
:1040900012A1144801F042FF9023124A1721502028
:1040A000FDF718FF15E000BF00BF00BF00BF00BF55
:1040B00000BF01F075FA0CE01220FFF78FFC022818
:1040C00003D10948FDF79CFB02E00848FDF798FB87
:1040D00000BF00BF7CBD00007C760000452530326B
:1040E00058000000F002002091420000512F000013
:1040F00010B5C046C04610BD1CB50446230001F0F3
:1041000038FF0C07466482AEAEAEAE3DAEAE9FAE9B
:1041100002F00EFC00F0B4F8524800F0DDFD524908
:104120005048FDF742FF4F48006881004D48083075
:10413000425890231B210A20FDF7CCFE0A20FFF7EE
:104140004DFC48490968494A515C88420AD101201E
:1041500047490C231022009101901B215A20FDF7A2
:1041600031FE05E027236A221B215A20FDF72CFC93
:10417000032201210846FEF7B5FE70E00022114639
:104180000120FEF7AFFE3B48FDF73AFB67E03548FC
:10419000FDF744FB0A20FFF721FC32490968334A46
:1041A000515C88420AD1012031490C231022009130
:1041B00001901B215A20FDF705FE05E027236A2206
:1041C0001B215A20FDF700FC49E02648FEF73EFA85
:1041D0000A20FFF703FC23490968244A515C8842FE
:1041E0000AD1012022490C231022009101901B21A9
:1041F0005A20FDF7E7FD05E027236A221B215A20FC
:10420000FDF7E2FB2BE017480068002806D00128E4
:1042100005D0022804D003280FD10AE000BF00BF58
:1042200010480068114A115C00220A20FFF7AEFC1A
:1042300004E01048FDF7E4FA00E000BF00BF0EE024
:1042400008480068094A115C01220A20FFF79EFC19
:104250000120094908700948FDF7D2FA00BF00BFE4
:104260001CBD0000740300207C000020C679000003
:10427000FC760000153400001C000020853800008A
:104280000020024908600320087170477403002071
:104290007CB504460B2C47D004DC002C07D0082C3E
:1042A0002FD12FE00C2C79D00E2CF9D177E06B4870
:1042B000007FBB2803D101206949087002E000207B
:1042C0006749087000206549087702F031FB9023A8
:1042D00064A21B211920FDF7FDFD00206349102376
:1042E0001A46009101901B215A20FDF76BFD002218
:1042F00011460120FEF7F6FD002211460320FEF7CD
:10430000F1FDA9E001F040FA01F03EFA01F03CFABB
:1043100001F03AFA01F038FA012051490870002200
:104320001146FEF7DFFD97E04D480078002802D0E7
:10433000012831D105E0022201210846FEF7D2FD15
:104340002AE000204A4908704448007E002802D034
:104350000020484901E0002047490246FCF776F872
:104360000546002229460220FFF710FC3B48007E4C
:10437000002802D00020414901E0002040490246C7
:10438000FCF764F80546002229460320FFF7FEFBF0
:104390003C48FDF735FA00BF00BF5DE035E030482E
:1043A0000078002803D0012001F0CAF901E001F0F3
:1043B000DDF935480078401C33490870022201219C
:1043C0000320FEF78FFD304800780A2806DA2B23F9
:1043D0006A221B215A20FDF7F7FA15E02A480078D7
:1043E0000A280EDB2848007814280ADA00201F4922
:1043F00010231A46009101901B215A20FDF7E2FC80
:1044000002E000202049087026E01F480078401C88
:104410001D490870084600780A2806DA2B236A220C
:104420001B215A20FDF7D0FA15E0174800780A281A
:104430000EDB1548007814280ADA00200B491023F7
:104440001A46009101901B215A20FDF7BBFC02E0A7
:1044500000200D49087000BF00BF7CBDF4000020A3
:10446000EC000020C7EBB3A4B0B400000C7900004E
:104470001C00002000DCB14000209C4000C07F40B8
:104480000000694085380000EB0000201CB50446A0
:10449000032C70D006DC002C09D0012C36D0022C65
:1044A00074D14FE0082C28D00E2C6FD146E002F0DA
:1044B0003FFA00F077F8364800F00EFC35493448F2
:1044C000FDF773FD324800688100314808304258DA
:1044D00090231B210A20FDF7FDFC00202E4910230C
:1044E0001A46009101901B215A20FDF76BFC002217
:1044F00011460120FEF7F6FC48E00022114601209B
:10450000FEF7F0FC2548FDF77BF93FE02048FDF77A
:1045100085F91F480068002809D11F4910231A4651
:10452000009101901B215A20FDF74CFC05E02B2344
:104530006A221B215A20FDF747FA27E01848FDF7A9
:104540005FF923E01248FEF781F81148006800285F
:1045500009D1114910231A46009101901B215A20BC
:10456000FDF730FC05E02B236A221B215A20FDF7C2
:104570002BFA0BE0FFE706480068012803D1074843
:10458000FDF73EF900E000BF00BF00BF00BF1CBD4B
:1045900018050020D80000200C7900001534000018
:1045A0009142000000200249086001200871704714
:1045B00018050020024608784B78984201D1012066
:1045C000704708784300881CC05C10700878401C55
:1045D000C0B20870C82801DB002008700020EFE797
:1045E0004A7853008A1CD0524A78521CD2B24A7080
:1045F000C82A01DB00224A704A780B789A4207D118
:104600000A78521CD2B20A70C82A01DB00220A7052
:10461000704700001CB50446230001F0AAFC0D08F9
:104620008384827E7F8081859999992E99000222C8
:1046300011462820FCF750FC02F07AF93C220121B7
:104640000846FEF74FFC012211460320FEF74AFC04
:104650000120404920231722009101900F21084694
:10466000FDF7B0FB01203C4920231122009101906D
:104670000F215F20FDF7A6FB6AE03848007800288C
:1046800006D0012815D0022824D0032842D132E0D8
:10469000902333A20F212D20FDF71CFC14220121B1
:1046A0000320FEF71FFC2D480078401C2B490870A2
:1046B00031E090232AA20F214120FDF70BFC1422A8
:1046C00001210320FEF70EFC24480078401C2349FA
:1046D000087020E0902322A20F215520FDF7FAFB5D
:1046E000142201210320FEF7FDFB1C480078401C2A
:1046F0001A4908700FE01F235F220F212820FDF7C1
:1047000063F9142201210320FEF7ECFB002013497A
:10471000087000E000BF00BF1AE000BF00BF00BF8C
:1047200000BF00BF00BF00BF022211460020FCF7FF
:10473000D3FB002211460120FEF7D4FB002002F03B
:1047400097F80020054908700648FDF759F800BFA2
:1047500000BF1CBD74770000147700002E000020FD
:104760003E000000512F0000FEB505462B0001F071
:1047700000FC0F0984C36FFEFDFCFBFA786E6EF936
:1047800083C46E00AC48007E002802D0AB48AC4920
:1047900001E00020AB490246FBF758FEAA49088019
:1047A000A548007E002802D0A848A94901E00020C1
:1047B000A8490246FBF74AFEA7490880A249098892
:1047C000A54A1288881A3121C943FBF7B7FC06466F
:1047D000FBF7DAFDA14908600020A149087002F04A
:1047E000A7F80120FFF7FAF89B490988401A0090C2
:1047F000FBF7D5FD0746994801683846FBF71DFDD4
:1048000006469849FBF7C0FC0190FBF70AFEC4B2CC
:1048100023466F2200216C20FDF7D6F837236F2244
:1048200021466C20FDF748F90120FFF7D7F807462D
:10483000FBF7B5FD064632461921322002F0CAF8D0
:10484000FCF7B6FE032201210846FEF74BFBF1E020
:10485000002211460120FEF745FB8348FCF7D0FFFC
:10486000E8E0FEF711FF002211460220FEF73AFBB6
:104870007E48FCF7C5FFDDE000BF032201210846AA
:10488000FEF730FB042201210320FEF72BFB002062
:1048900000F056FF0120FFF7A1F80746FBF77FFD68
:1048A000064632461921322002F094F80120FFF723
:1048B00095F869490988401A0090FBF770FD074692
:1048C000664801683846FBF7B8FC66490190FBF77B
:1048D0005BFC0646FBF7A5FDC4B223466F22002110
:1048E0006C20FDF771F837236F2221466C20FDF70D
:1048F000E3F8FCF75DFE9DE000BF032201210846BE
:10490000FEF7F0FA042201210320FEF7EBFA012062
:1049100000F016FF0120FFF761F80746FBF73FFDA7
:10492000064632461921322002F054F80120FFF7E2
:1049300055F849490988471A3846FBF730FD0646BD
:10494000464801683046FBF778FC46490090FBF783
:104950001BFC0190FBF765FDC4B223466F220021CA
:104960006C2005E024E057E010E00EE00CE00AE0E7
:10497000FDF72AF837236F2221466C20FDF79CF8BB
:10498000FCF716FE56E000BF00BF00BFE81E384926
:104990000870E8B2FFF722F8002800D14AE00022B0
:1049A00011460220FEF79EFA3248FCF729FF41E04B
:1049B00000F0D4FE0120FFF711F80746FBF7EFFCEB
:1049C000064632461921322002F004F80120FFF792
:1049D00005F821490988471A3846FBF7E0FC0090A2
:1049E0001E4801680098FBF728FC1E490190FBF760
:1049F000CBFB0646FBF715FDC4B223466F22002110
:104A00006C20FCF7E1FF37236F2221466C20FDF775
:104A100053F8FCF7CDFD0DE0002211460320FEF710
:104A200061FA002211460120FEF75CFA0E48FCF7FD
:104A3000E7FE00BF00BFFEBDF40000209A999999DF
:104A40009929864000209C402800002033333333CE
:104A500033B35340000069402A00002024000020A6
:104A60002000002000005C42512F0000153400009F
:104A70001D000020794A0000FEB505462B0001F01C
:104A800078FA0C07B0B1ABACADAEAF99BABAA2BA76
:104A900001F04EFF002211460320FEF723FA3C22CC
:104AA00001210846FEF71EFA54480078012806D076
:104AB000022817D0032828D004284CD138E004203D
:104AC000FEF78CFF0646FBF76AFC044622461921D6
:104AD000322001F07FFF902349A208215020FDF7EA
:104AE000F9F938E00520FEF779FF0646FBF757FC99
:104AF000044622461921322001F06CFF902341A286
:104B000008215020FDF7E6F925E00620FEF766FFB4
:104B10000646FBF744FC044622461921322001F0E8
:104B200059FF902338A208215020FDF7D3F912E055
:104B30000720FEF753FF0646FBF731FC04462246EA
:104B40001921322001F046FF902330A20821502085
:104B5000FDF7C0F900BF00BF0220FEF73FFF074688
:104B6000FBF71DFC06462146FBF7B6FC0AD30320E3
:104B7000FEF734FF0746FBF712FC06462146FBF71B
:104B8000B5FC03D22248FCF73BFEFEBD1B48007873
:104B900000F07AFD01201F4920231A460091019060
:104BA00014210A20FDF70EF9032201210846FEF721
:104BB00099F920E0002211460120FEF793F91648EA
:104BC000FCF71EFE17E0002211460120FEF78AF9CD
:104BD0001148FCF715FE0EE000BF00BF00BF00BF8C
:104BE00000BF00BF002211460120FEF77BF90A48F2
:104BF000FCF706FE00BF00BF00BFC6E71D00002097
:104C00004D3100004D3200004D3300004D340000A6
:104C10004D4C0000FC740000512F000010B5C04640
:104C2000C04610BD10B5C046C04610BD10B5012A23
:104C300005D1036801248C402343036004E003682A
:104C400001248C40A343036010BD00001CB5044642
:104C5000230001F08EF90906282927232425262D73
:104C6000360001F065FE002211460120FEF73AF9F8
:104C70000120154920231A46009101900F211E2082
:104C8000FDF7A0F8902311A217215020FDF722F97B
:104C9000012211461046FEF725F912E000BF00BFC1
:104CA00000BF00BF00BF00BF0A48FCF7A9FD08E035
:104CB000002211460120FEF715F90648FCF7A0FD79
:104CC00000BF00BF1CBD00007C760000B3ACCFDE8F
:104CD00000000000512F00001CB504462068002889
:104CE0000AD1012016490623102200910190322199
:104CF0000A20FDF767F822E02179206888420AD16E
:104D00000120104906231022009101900A21084633
:104D1000FDF758F813E001200A49062310220091FC
:104D200001900A210846FDF74DF8012004490623A9
:104D300010220091019032210A20FDF743F81CBD9A
:104D4000D4770000E07700000020024908600420CA
:104D500008717047380300201CB50446230001F099
:104D600008F90C07476685B2B2B2B23EB2B2A2B23F
:104D700001F0DEFDFFF7E8FF5448FFF7ADFF5449AF
:104D80005248FDF712F95148006881004F48083039
:104D9000425890231B210A20FDF79CF80820FEF7BB
:104DA0001DFE4A49096849004A4A515A88420AD1B7
:104DB000012049490C231022009101901B215A2007
:104DC000FDF700F805E027236A221B215A20FCF793
:104DD000FBFD032201210846FEF784F873E0002260
:104DE00011460120FEF77EF83C48FCF709FD6AE019
:104DF0003648FCF713FD0820FEF7F0FD334909683B
:104E00004900344A515A88420AD1012032490C23C0
:104E10001022009101901B215A20FCF7D3FF05E0DE
:104E200027236A221B215A20FCF7CEFD4BE027489E
:104E3000FDF70CFC0820FEF7D1FD24490968490064
:104E4000244A515A88420AD1012023490C231022B6
:104E5000009101901B215A20FCF7B4FF05E02723A5
:104E60006A221B215A20FCF7AFFD2CE0174800688E
:104E7000030001F07EF8050405060711150000BFC8
:104E800000BF00BF114800684000124A115A0022BA
:104E90000820FEF77BFE04E01048FCF7B1FC00E0C0
:104EA00000BF00BF0FE0094800684000094A115ADE
:104EB00001220820FEF76AFE01200949087009480E
:104EC000FCF79EFC00BF00BF1CBD000038030020A3
:104ED00068000020BC790000FC760000153400005A
:104EE0001C00002085380000024690680840002819
:104EF00001D0012070470020FCE70246002010602E
:104F000008784B7818438B781843CB7818434023A4
:104F1000184310600020906070470246D160002066
:104F2000704741607047000010B50446230001F04F
:104F300020F80F091213110D0E0F101C1C1C1C1C45
:104F400015141C00002001F01FFE0EE000BF00BF82
:104F500000BF00BF00BF00BF00BF00BF012001F0C5
:104F600013FE0348FCF74CFC00BF00BF10BD00005F
:104F7000512F000010B5C046C04610BD70B50446A4
:104F800000252078030000F0F4FF0504050C10183C
:104F90001C0018E0032000F035FA032000F0FCF9B3
:104FA00011E0032000F0D2F90DE00321084600F0E3
:104FB00037FA032000F000FA05E0072000F094F92A
:104FC00001E0042500BF00BF2078012100F00CF8AB
:104FD000207800F001FA607800F05EF9A07800F027
:104FE0006FF9284670BD000070B505460C460026D6
:104FF00000F088FF002C01D0012000E000200446D2
:105000002B0000F0B6FF05041731456276003B48DF
:10501000006840084000E107C90F084337490860AD
:1050200000BF002C05D03548C0680005C00F00281F
:10503000F7D060E03248C068032108433049C860B7
:105040002E48006802218843610002221140084373
:105050002A49086000BF002C05D028480069400696
:10506000C00F0028F7D046E0244800680421884398
:10507000A1000422114008432049086000BF002C11
:1050800005D01E484069C004C00F0028F7D032E0A8
:105090001B484038C0680321890308431849403938
:1050A000C8601648006808218843E10008221140C2
:1050B00008431249086000BF002C05D00F488069E2
:1050C0004006C00F0028F7D015E00C4800681021FA
:1050D000884321011022114008430849086000BF9D
:1050E000002C05D00548C06B4003C00F0028F7D046
:1050F00001E0042600BF00BF304670BD0020004024
:10510000C00D024030B589B000241422564904A8CD
:10511000FBF728F8544814300068039000200090F2
:105120000190029051480188684601814F484188AA
:105130006846C1804D488188684681804B48C18857
:1051400068464180494820300188684601804848C7
:1051500000680006450F2B0000F00BFF05042E3001
:105160003E4178004248C0684005400D69460989C3
:10517000884201D1089C1EE03D48C0684005400DB2
:105180006946C988884201D1079C14E03848C06844
:105190004005400D69468988884201D1069C0AE095
:1051A0003348C0684005400D69464988884201D1AE
:1051B000059C00E0049C4BE02E4C49E068460088CA
:1051C0002B4949698905890D884202D16846C489FD
:1051D00001E0684684893BE00124E40338E0244888
:1051E000C06B8007800F032829D1684600892049B9
:1051F000C9684905490D884201D1089C20E06846EC
:10520000C0881B49C9684905490D884201D1079CDE
:1052100016E0684680881649C9684905490D8842E4
:1052200001D1069C0CE0684640881149C9684905CF
:10523000490D884201D1059C02E0049C00E00D4C20
:105240000B48C06BC005000F444301E0002400BFC1
:1052500000BF074800684005410F2046C84004468B
:10526000204609B030BD0000F46D0000000C1000B5
:10527000002000400048E80110B50024FFF742FF7D
:10528000044604480068C004810F2046C840044614
:10529000204610BD0020004010B5044600F032FE4C
:1052A00006480068072109028843210207221202EA
:1052B0001140084301490860002010BD0020004053
:1052C00010B5044600F01EFE064800680321C9021E
:1052D0008843E1020322D2021140084301490860D9
:1052E000002010BD0020004010B501460020064AF5
:1052F000D26B0723DB039A43CB030724E403234049
:105300001A43014BDA6310BD0020004070B504461B
:105310000D462A4621460248FFF788FC002070BD52
:105320002020004001464A00064BD2181288500542
:10533000400D054AD268D20AD2020243024BDA601B
:1053400000207047000C10000020004010B50146FE
:105350000020064A526903239B029A438B020324CE
:10536000A40223401A43014B5A6110BD00200040A3
:1053700001464A00064BD21812889005800D054A56
:105380005269920A92020243024B5A61002070470E
:10539000000C10000020004010B501460020054A16
:1053A000126930239A430B01302423401A43014BE6
:1053B0001A6110BD0020004010B501460020054ACA
:1053C000926930239A430B01302423401A43014B46
:1053D0009A6110BD0020004070B5044600252646A5
:1053E00000F090FD06480068E02188437101E0224A
:1053F000114008430249086000F02CF8284670BDAF
:105400000020004001460020044A126992089200E0
:105410008B079B0F1A43014B1A6170470020004015
:1054200030B5024600200A4B9B690C24A34394002C
:105430000C252C402343064CA36123469B699B0803
:105440009B008C07A40F2343014CA36130BD0000D7
:105450000020004010B5FFF755FE0149086010BD5F
:105460000000002010B5FFF7F5FF10BD10B5C046D5
:10547000C04610BD10B5C046C04610BD10B500F006
:1054800011F810BD10B5C046C04610BD10B5C046DD
:10549000C04610BD10B5C046C04610BD10B5C046D0
:1054A000C04610BD10B500210220FBF7ABFE01285D
:1054B00009D1FDF797FCFDF707F9FBF701FD002186
:1054C0000220FBF791FE10BD10B5C046C04610BDCE
:1054D00010B500F001F810BD10B50021274800F00C
:1054E0008CF8002848D00021244800F067F82348B1
:1054F00000F0C6F822490870224921480078FFF7D9
:105500006FF821480078002804D001280AD002282A
:1055100031D117E01A4800789B2802D101201A499E
:10552000087028E016480078184908700846007886
:10553000172803DC02201449087002E000201249F9
:10554000087018E011480078401E1049087008469D
:10555000007800280ED10A4800789D2807D1094814
:105560002038807F401CC1B2064820388177002057
:105570000549087000BF00BF10BD000000010040D9
:10558000140000205E0100201800002019000020F7
:1055900010B50121014801F05BFB10BD1A7000003D
:1055A00010B55B210348C1770121034801F050FB8E
:1055B00010BD00003E0100201B70000070B50446C5
:1055C0000D460022294620461430FFF72FFB00200D
:1055D00070BD70B504460D4601222946201DFFF717
:1055E00025FB002070BD70B504460D4601222946FA
:1055F000201DFFF71BFB002070BD70B504460D4653
:105600000026294620461030FCF7C9FC06463046E5
:1056100070BD0000FEB505460C460127174903C9B9
:1056200001910090002C01D10420FEBD0020686093
:10563000608861780843A18808432178084368603E
:105640002078402802D02078C02813D1A088C11724
:10565000C90D0918491289006A46515A8EB2E2688A
:10566000B2401146A068FAF753FDA861042128460C
:10567000FFF7AFFF00273846D7E700000C6E0000A9
:1056800001460868C0B2704738B5044606A00068F5
:1056900000906846447058210448C177022168464A
:1056A00001F0D6FA38BD0000580000003E0100208D
:1056B00070B504460D4600BF03212046FFF79DFF4D
:1056C0000028F9D02068000A0002E9B208432060EF
:1056D00000BF01212046FFF790FF0028F9D00121EB
:1056E0002046FFF76BFF002070BD000010B553216E
:1056F0000348C1770121034801F0AAFA10BD000058
:105700003E0100201570000010B554210348C177F8
:105710000121034801F09CFA10BD00003E01002069
:105720001670000010B555210348C17701210348C8
:1057300001F08EFA10BD00003E010020177000003D
:1057400038B5044604A00068009068464470022101
:1057500001F07EFA38BD00005A00000010B50121AA
:10576000014801F075FA10BD1470000010B5562103
:105770000348C1770121034801F06AFA10BD000017
:105780003E0100201870000010B50121014801F011
:105790005FFA10BD1970000010B50446A07F5038A4
:1057A000030000F0E6FB0D08575F6C6D6E6F81A47F
:1057B000A5AFB7C4C800E07F604988762020005DAF
:1057C00008822120005D08752220015D5B4841753B
:1057D0002220005D04210840584988752320015D7E
:1057E0005648C1752420015D544801762520005D8E
:1057F00000022621095D0843504948802720005DAA
:1058000000022821095D08434C4988802920005D59
:1058100008772A20005D00022B21095D08434749D3
:10582000C8802C20005D00022D21095D08434349FA
:1058300008812E20005D00022F21095D08433F49A9
:1058400048813020005D00023121095D08433B4959
:10585000888171E0E07F00022021095D084337491B
:10586000088069E0A17F3F20005D814200D063E0B5
:1058700001203249C8760B20FDF75CFA5CE000BFDE
:1058800000BF00BFA17F3F20005D814200D053E0F8
:10589000E07F002801D0012000E000202749C876E1
:1058A0000B20FDF747FA47E0E07F002809D0E07FB2
:1058B00022494876012001F067F92148FBF7A0FF53
:1058C00012E02020005D012805D101F05DF91D489E
:1058D000FBF796FF08E02020005D022804D1022299
:1058E00011461046FBF7F8FAFFF752FE24E000BF1E
:1058F000A17F3F20005D814200D01DE00B20FDF71D
:1059000019FA19E0E07F00022021095D08430B49E4
:10591000088011E0A17F3F20005D814200D00BE0B4
:10592000E07F064948770B20FDF704FA04E00B20DE
:10593000FDF700FA00E000BF00BF10BDF40000203A
:105940004D40000015460000F8B5044600200090C8
:10595000002500263E20005D002800D1F8BD6846E5
:1059600001F0E0F9002804D100213E200155012575
:10597000BDE0684601783C20025D005D401CC3B27A
:105980003C200355A15460480078030000F0F1FA70
:1059900005040C1F6F93AC00684600789B2802D169
:1059A000012059490870A0E06846007803280BDD03
:1059B00068460078182807DA684600785349087066
:1059C00002205149087001E0012590E08DE0504827
:1059D000007800026946097808434D490880084666
:1059E00000884C4988421DD1684602783D20005D00
:1059F000401E21461E310A543C20005D434909786F
:105A000088420FD100204449087068460178424816
:105A100002780078401C404B1870404881540320A5
:105A2000394908703C20005D38490978884210D116
:105A300000203949087068460178374802780078B4
:105A4000401C354B18703548815403202E4908708E
:105A50000CE0684600783D21095D3D22125D521C34
:105A6000D3B23D22135522461E3250543DE06846C3
:105A70000178294802780078401C274B1870274885
:105A8000815418460078022814D13D20005D411C45
:105A9000601CFBF771FD06462048007800021F4994
:105AA00049780843B04203D104201749087001E047
:105AB00001251CE019E0684600789D2811D1204698
:105AC000FFF76AFE00213C2001553D2001550020D2
:105AD0000D4908701248807F401EC1B2104881777E
